{
  "_format": "hh-sol-artifact-1",
  "contractName": "SchoolManagementSystem",
  "sourceName": "contracts/SchoolManagementSystem.sol",
  "abi": [
    {
      "inputs": [
        {
          "internalType": "uint256",
          "name": "_id",
          "type": "uint256"
        },
        {
          "internalType": "enum SchoolManagementSystem.Status",
          "name": "_newStatus",
          "type": "uint8"
        }
      ],
      "name": "change_student_status",
      "outputs": [],
      "stateMutability": "nonpayable",
      "type": "function"
    },
    {
      "inputs": [
        {
          "internalType": "uint256",
          "name": "_id",
          "type": "uint256"
        }
      ],
      "name": "delete_student",
      "outputs": [],
      "stateMutability": "nonpayable",
      "type": "function"
    },
    {
      "inputs": [
        {
          "internalType": "uint256",
          "name": "_id",
          "type": "uint256"
        },
        {
          "internalType": "string",
          "name": "_name",
          "type": "string"
        },
        {
          "internalType": "uint256",
          "name": "_age",
          "type": "uint256"
        }
      ],
      "name": "registerStudent",
      "outputs": [],
      "stateMutability": "nonpayable",
      "type": "function"
    },
    {
      "inputs": [
        {
          "internalType": "uint256",
          "name": "",
          "type": "uint256"
        }
      ],
      "name": "students",
      "outputs": [
        {
          "internalType": "uint256",
          "name": "id",
          "type": "uint256"
        },
        {
          "internalType": "string",
          "name": "name",
          "type": "string"
        },
        {
          "internalType": "uint256",
          "name": "age",
          "type": "uint256"
        },
        {
          "internalType": "enum SchoolManagementSystem.Status",
          "name": "status",
          "type": "uint8"
        }
      ],
      "stateMutability": "view",
      "type": "function"
    },
    {
      "inputs": [
        {
          "internalType": "uint256",
          "name": "_id",
          "type": "uint256"
        },
        {
          "internalType": "string",
          "name": "_new_name",
          "type": "string"
        },
        {
          "internalType": "uint256",
          "name": "_new_age",
          "type": "uint256"
        }
      ],
      "name": "update_student",
      "outputs": [],
      "stateMutability": "nonpayable",
      "type": "function"
    },
    {
      "inputs": [],
      "name": "view_student",
      "outputs": [
        {
          "components": [
            {
              "internalType": "uint256",
              "name": "id",
              "type": "uint256"
            },
            {
              "internalType": "string",
              "name": "name",
              "type": "string"
            },
            {
              "internalType": "uint256",
              "name": "age",
              "type": "uint256"
            },
            {
              "internalType": "enum SchoolManagementSystem.Status",
              "name": "status",
              "type": "uint8"
            }
          ],
          "internalType": "struct SchoolManagementSystem.Student[]",
          "name": "",
          "type": "tuple[]"
        }
      ],
      "stateMutability": "view",
      "type": "function"
    }
  ],
  "bytecode": "0x6080604052348015600f57600080fd5b506112588061001f6000396000f3fe608060405234801561001057600080fd5b50600436106100625760003560e01c806306ead22e146100675780631b5c81a51461009a578063278514a1146100b65780633f09a538146100d2578063ae1b94f3146100ee578063afafb5681461010c575b600080fd5b610081600480360381019061007c919061081e565b610128565b6040516100919493929190610961565b60405180910390f35b6100b460048036038101906100af9190610ae2565b6101fd565b005b6100d060048036038101906100cb9190610b76565b6103c0565b005b6100ec60048036038101906100e7919061081e565b610458565b005b6100f66104fb565b6040516101039190610d43565b60405180910390f35b61012660048036038101906101219190610ae2565b61063b565b005b6000818154811061013857600080fd5b906000526020600020906004020160009150905080600001549080600101805461016190610d94565b80601f016020809104026020016040519081016040528092919081815260200182805461018d90610d94565b80156101da5780601f106101af576101008083540402835291602001916101da565b820191906000526020600020905b8154815290600101906020018083116101bd57829003601f168201915b5050505050908060020154908060030160009054906101000a900460ff16905084565b6000825111610241576040517f08c379a000000000000000000000000000000000000000000000000000000000815260040161023890610e11565b60405180910390fd5b6000811180156102515750601481105b610290576040517f08c379a000000000000000000000000000000000000000000000000000000000815260040161028790610e7d565b60405180910390fd5b6000805490508310156102d8576040517f08c379a00000000000000000000000000000000000000000000000000000000081526004016102cf90610ee9565b60405180910390fd5b5b8260008054905011610308576000600181600181540180825580915050039060005260206000209050506102d9565b604051806080016040528084815260200183815260200182815260200160006002811115610339576103386108ea565b5b815250600084815481106103505761034f610f09565b5b906000526020600020906004020160008201518160000155602082015181600101908161037d91906110e4565b506040820151816002015560608201518160030160006101000a81548160ff021916908360028111156103b3576103b26108ea565b5b0217905550905050505050565b6000805490508210610407576040517f08c379a00000000000000000000000000000000000000000000000000000000081526004016103fe90611202565b60405180910390fd5b806000838154811061041c5761041b610f09565b5b906000526020600020906004020160030160006101000a81548160ff0219169083600281111561044f5761044e6108ea565b5b02179055505050565b600080549050811061049f576040517f08c379a000000000000000000000000000000000000000000000000000000000815260040161049690611202565b60405180910390fd5b600081815481106104b3576104b2610f09565b5b90600052602060002090600402016000808201600090556001820160006104da9190610777565b60028201600090556003820160006101000a81549060ff0219169055505050565b60606000805480602002602001604051908101604052809291908181526020016000905b8282101561063257838290600052602060002090600402016040518060800160405290816000820154815260200160018201805461055c90610d94565b80601f016020809104026020016040519081016040528092919081815260200182805461058890610d94565b80156105d55780601f106105aa576101008083540402835291602001916105d5565b820191906000526020600020905b8154815290600101906020018083116105b857829003601f168201915b50505050508152602001600282015481526020016003820160009054906101000a900460ff16600281111561060d5761060c6108ea565b5b600281111561061f5761061e6108ea565b5b815250508152602001906001019061051f565b50505050905090565b6000805490508310610682576040517f08c379a000000000000000000000000000000000000000000000000000000000815260040161067990611202565b60405180910390fd5b60008251116106c6576040517f08c379a00000000000000000000000000000000000000000000000000000000081526004016106bd90610e11565b60405180910390fd5b6000811180156106d65750609681105b610715576040517f08c379a000000000000000000000000000000000000000000000000000000000815260040161070c90610e7d565b60405180910390fd5b816000848154811061072a57610729610f09565b5b9060005260206000209060040201600101908161074791906110e4565b50806000848154811061075d5761075c610f09565b5b906000526020600020906004020160020181905550505050565b50805461078390610d94565b6000825580601f1061079557506107b4565b601f0160209004906000526020600020908101906107b391906107b7565b5b50565b5b808211156107d05760008160009055506001016107b8565b5090565b6000604051905090565b600080fd5b600080fd5b6000819050919050565b6107fb816107e8565b811461080657600080fd5b50565b600081359050610818816107f2565b92915050565b600060208284031215610834576108336107de565b5b600061084284828501610809565b91505092915050565b610854816107e8565b82525050565b600081519050919050565b600082825260208201905092915050565b60005b83811015610894578082015181840152602081019050610879565b60008484015250505050565b6000601f19601f8301169050919050565b60006108bc8261085a565b6108c68185610865565b93506108d6818560208601610876565b6108df816108a0565b840191505092915050565b7f4e487b7100000000000000000000000000000000000000000000000000000000600052602160045260246000fd5b6003811061092a576109296108ea565b5b50565b600081905061093b82610919565b919050565b600061094b8261092d565b9050919050565b61095b81610940565b82525050565b6000608082019050610976600083018761084b565b818103602083015261098881866108b1565b9050610997604083018561084b565b6109a46060830184610952565b95945050505050565b600080fd5b600080fd5b7f4e487b7100000000000000000000000000000000000000000000000000000000600052604160045260246000fd5b6109ef826108a0565b810181811067ffffffffffffffff82111715610a0e57610a0d6109b7565b5b80604052505050565b6000610a216107d4565b9050610a2d82826109e6565b919050565b600067ffffffffffffffff821115610a4d57610a4c6109b7565b5b610a56826108a0565b9050602081019050919050565b82818337600083830152505050565b6000610a85610a8084610a32565b610a17565b905082815260208101848484011115610aa157610aa06109b2565b5b610aac848285610a63565b509392505050565b600082601f830112610ac957610ac86109ad565b5b8135610ad9848260208601610a72565b91505092915050565b600080600060608486031215610afb57610afa6107de565b5b6000610b0986828701610809565b935050602084013567ffffffffffffffff811115610b2a57610b296107e3565b5b610b3686828701610ab4565b9250506040610b4786828701610809565b9150509250925092565b60038110610b5e57600080fd5b50565b600081359050610b7081610b51565b92915050565b60008060408385031215610b8d57610b8c6107de565b5b6000610b9b85828601610809565b9250506020610bac85828601610b61565b9150509250929050565b600081519050919050565b600082825260208201905092915050565b6000819050602082019050919050565b610beb816107e8565b82525050565b600082825260208201905092915050565b6000610c0d8261085a565b610c178185610bf1565b9350610c27818560208601610876565b610c30816108a0565b840191505092915050565b610c4481610940565b82525050565b6000608083016000830151610c626000860182610be2565b5060208301518482036020860152610c7a8282610c02565b9150506040830151610c8f6040860182610be2565b506060830151610ca26060860182610c3b565b508091505092915050565b6000610cb98383610c4a565b905092915050565b6000602082019050919050565b6000610cd982610bb6565b610ce38185610bc1565b935083602082028501610cf585610bd2565b8060005b85811015610d315784840389528151610d128582610cad565b9450610d1d83610cc1565b925060208a01995050600181019050610cf9565b50829750879550505050505092915050565b60006020820190508181036000830152610d5d8184610cce565b905092915050565b7f4e487b7100000000000000000000000000000000000000000000000000000000600052602260045260246000fd5b60006002820490506001821680610dac57607f821691505b602082108103610dbf57610dbe610d65565b5b50919050565b7f4e616d652063616e6e6f7420626520656d707479000000000000000000000000600082015250565b6000610dfb601483610865565b9150610e0682610dc5565b602082019050919050565b60006020820190508181036000830152610e2a81610dee565b9050919050565b7f496e76616c696420616765000000000000000000000000000000000000000000600082015250565b6000610e67600b83610865565b9150610e7282610e31565b602082019050919050565b60006020820190508181036000830152610e9681610e5a565b9050919050565b7f4944206d75737420626520756e6971756520616e642073657175656e7469616c600082015250565b6000610ed3602083610865565b9150610ede82610e9d565b602082019050919050565b60006020820190508181036000830152610f0281610ec6565b9050919050565b7f4e487b7100000000000000000000000000000000000000000000000000000000600052603260045260246000fd5b60008190508160005260206000209050919050565b60006020601f8301049050919050565b600082821b905092915050565b600060088302610f9a7fffffffffffffffffffffffffffffffffffffffffffffffffffffffffffffffff82610f5d565b610fa48683610f5d565b95508019841693508086168417925050509392505050565b6000819050919050565b6000610fe1610fdc610fd7846107e8565b610fbc565b6107e8565b9050919050565b6000819050919050565b610ffb83610fc6565b61100f61100782610fe8565b848454610f6a565b825550505050565b600090565b611024611017565b61102f818484610ff2565b505050565b5b818110156110535761104860008261101c565b600181019050611035565b5050565b601f8211156110985761106981610f38565b61107284610f4d565b81016020851015611081578190505b61109561108d85610f4d565b830182611034565b50505b505050565b600082821c905092915050565b60006110bb6000198460080261109d565b1980831691505092915050565b60006110d483836110aa565b9150826002028217905092915050565b6110ed8261085a565b67ffffffffffffffff811115611106576111056109b7565b5b6111108254610d94565b61111b828285611057565b600060209050601f83116001811461114e576000841561113c578287015190505b61114685826110c8565b8655506111ae565b601f19841661115c86610f38565b60005b828110156111845784890151825560018201915060208501945060208101905061115f565b868310156111a1578489015161119d601f8916826110aa565b8355505b6001600288020188555050505b505050505050565b7f496e76616c696420696400000000000000000000000000000000000000000000600082015250565b60006111ec600a83610865565b91506111f7826111b6565b602082019050919050565b6000602082019050818103600083015261121b816111df565b905091905056fea2646970667358221220c5d43f36536320b38b7312df96745b2d62e409d7518c30b8179fab68286cc66764736f6c634300081c0033",
  "linkReferences": {},
  "deployedLinkReferences": {}
}