{
  "_format": "hh-sol-artifact-1",
  "contractName": "SchoolManagementSystem",
  "sourceName": "contracts/SchMgtSystem.sol",
  "abi": [
    {
      "inputs": [],
      "name": "INVALID_ADDRESS",
      "type": "error"
    },
    {
      "inputs": [],
      "name": "INVALID_ID",
      "type": "error"
    },
    {
      "inputs": [],
      "name": "STUDENT_NOT_FOUND",
      "type": "error"
    },
    {
      "inputs": [
        {
          "components": [
            {
              "internalType": "address",
              "name": "studentAddress",
              "type": "address"
            },
            {
              "internalType": "string",
              "name": "name",
              "type": "string"
            },
            {
              "internalType": "uint256",
              "name": "age",
              "type": "uint256"
            },
            {
              "internalType": "enum SchoolManagementSystem.Status",
              "name": "status",
              "type": "uint8"
            }
          ],
          "internalType": "struct SchoolManagementSystem.StudentDetails",
          "name": "details",
          "type": "tuple"
        }
      ],
      "name": "another_registration",
      "outputs": [],
      "stateMutability": "nonpayable",
      "type": "function"
    },
    {
      "inputs": [
        {
          "internalType": "address",
          "name": "_studentAddress",
          "type": "address"
        }
      ],
      "name": "delete_student",
      "outputs": [],
      "stateMutability": "nonpayable",
      "type": "function"
    },
    {
      "inputs": [],
      "name": "get_all_students",
      "outputs": [
        {
          "components": [
            {
              "internalType": "address",
              "name": "studentAddress",
              "type": "address"
            },
            {
              "internalType": "string",
              "name": "name",
              "type": "string"
            },
            {
              "internalType": "uint256",
              "name": "age",
              "type": "uint256"
            },
            {
              "internalType": "enum SchoolManagementSystem.Status",
              "name": "status",
              "type": "uint8"
            }
          ],
          "internalType": "struct SchoolManagementSystem.StudentDetails[]",
          "name": "",
          "type": "tuple[]"
        }
      ],
      "stateMutability": "view",
      "type": "function"
    },
    {
      "inputs": [
        {
          "internalType": "address",
          "name": "_studentAddress",
          "type": "address"
        }
      ],
      "name": "get_student_by_id",
      "outputs": [
        {
          "components": [
            {
              "internalType": "address",
              "name": "studentAddress",
              "type": "address"
            },
            {
              "internalType": "string",
              "name": "name",
              "type": "string"
            },
            {
              "internalType": "uint256",
              "name": "age",
              "type": "uint256"
            },
            {
              "internalType": "enum SchoolManagementSystem.Status",
              "name": "status",
              "type": "uint8"
            }
          ],
          "internalType": "struct SchoolManagementSystem.StudentDetails",
          "name": "",
          "type": "tuple"
        }
      ],
      "stateMutability": "view",
      "type": "function"
    },
    {
      "inputs": [
        {
          "internalType": "address",
          "name": "_studentAddress",
          "type": "address"
        },
        {
          "internalType": "string",
          "name": "_name",
          "type": "string"
        },
        {
          "internalType": "uint256",
          "name": "_age",
          "type": "uint256"
        }
      ],
      "name": "register_student",
      "outputs": [],
      "stateMutability": "nonpayable",
      "type": "function"
    },
    {
      "inputs": [
        {
          "internalType": "address",
          "name": "_studentAddress",
          "type": "address"
        },
        {
          "internalType": "string",
          "name": "_new_name",
          "type": "string"
        }
      ],
      "name": "update_student",
      "outputs": [],
      "stateMutability": "nonpayable",
      "type": "function"
    },
    {
      "inputs": [
        {
          "internalType": "address",
          "name": "_studendAddress",
          "type": "address"
        },
        {
          "internalType": "enum SchoolManagementSystem.Status",
          "name": "_status",
          "type": "uint8"
        }
      ],
      "name": "update_students_status",
      "outputs": [],
      "stateMutability": "nonpayable",
      "type": "function"
    }
  ],
  "bytecode": "0x6080604052348015600f57600080fd5b506117408061001f6000396000f3fe608060405234801561001057600080fd5b506004361061007d5760003560e01c8063a9b20ec71161005b578063a9b20ec7146100d8578063ae997f9c146100f4578063b6393da214610124578063f902e7e0146101405761007d565b80630eeda7e6146100825780633ab9a9ec1461009e57806368be63cd146100bc575b600080fd5b61009c60048036038101906100979190610d49565b61015c565b005b6100a6610275565b6040516100b39190610ff1565b60405180910390f35b6100d660048036038101906100d19190611013565b610401565b005b6100f260048036038101906100ed9190611132565b610454565b005b61010e6004803603810190610109919061117b565b610574565b60405161011b919061120b565b60405180910390f35b61013e6004803603810190610139919061117b565b6107ab565b005b61015a6004803603810190610155919061122d565b610a13565b005b600060405180608001604052808573ffffffffffffffffffffffffffffffffffffffff168152602001848152602001838152602001600060028111156101a5576101a4610e81565b5b8152509050600181908060018154018082558091505060019003906000526020600020906004020160009091909190915060008201518160000160006101000a81548173ffffffffffffffffffffffffffffffffffffffff021916908373ffffffffffffffffffffffffffffffffffffffff16021790555060208201518160010190816102329190611479565b506040820151816002015560608201518160030160006101000a81548160ff0219169083600281111561026857610267610e81565b5b0217905550505050505050565b60606001805480602002602001604051908101604052809291908181526020016000905b828210156103f857838290600052602060002090600402016040518060800160405290816000820160009054906101000a900473ffffffffffffffffffffffffffffffffffffffff1673ffffffffffffffffffffffffffffffffffffffff1673ffffffffffffffffffffffffffffffffffffffff1681526020016001820180546103229061129c565b80601f016020809104026020016040519081016040528092919081815260200182805461034e9061129c565b801561039b5780601f106103705761010080835404028352916020019161039b565b820191906000526020600020905b81548152906001019060200180831161037e57829003601f168201915b50505050508152602001600282015481526020016003820160009054906101000a900460ff1660028111156103d3576103d2610e81565b5b60028111156103e5576103e4610e81565b5b8152505081526020019060010190610299565b50505050905090565b806000808473ffffffffffffffffffffffffffffffffffffffff1673ffffffffffffffffffffffffffffffffffffffff168152602001908152602001600020600101908161044f9190611479565b505050565b6040518060800160405280826000015173ffffffffffffffffffffffffffffffffffffffff1681526020018260200151815260200182604001518152602001600060028111156104a7576104a6610e81565b5b8152509050600181908060018154018082558091505060019003906000526020600020906004020160009091909190915060008201518160000160006101000a81548173ffffffffffffffffffffffffffffffffffffffff021916908373ffffffffffffffffffffffffffffffffffffffff16021790555060208201518160010190816105349190611479565b506040820151816002015560608201518160030160006101000a81548160ff0219169083600281111561056a57610569610e81565b5b0217905550505050565b61057c610aae565b60005b600180549050811015610773578273ffffffffffffffffffffffffffffffffffffffff16600182815481106105b7576105b661154b565b5b906000526020600020906004020160000160009054906101000a900473ffffffffffffffffffffffffffffffffffffffff1673ffffffffffffffffffffffffffffffffffffffff160361076657600181815481106106185761061761154b565b5b90600052602060002090600402016040518060800160405290816000820160009054906101000a900473ffffffffffffffffffffffffffffffffffffffff1673ffffffffffffffffffffffffffffffffffffffff1673ffffffffffffffffffffffffffffffffffffffff1681526020016001820180546106979061129c565b80601f01602080910402602001604051908101604052809291908181526020018280546106c39061129c565b80156107105780601f106106e557610100808354040283529160200191610710565b820191906000526020600020905b8154815290600101906020018083116106f357829003601f168201915b50505050508152602001600282015481526020016003820160009054906101000a900460ff16600281111561074857610747610e81565b5b600281111561075a57610759610e81565b5b815250509150506107a6565b808060010191505061057f565b506040517f5963709b00000000000000000000000000000000000000000000000000000000815260040160405180910390fd5b919050565b60005b6001805490508110156109dd578173ffffffffffffffffffffffffffffffffffffffff16600182815481106107e6576107e561154b565b5b906000526020600020906004020160000160009054906101000a900473ffffffffffffffffffffffffffffffffffffffff1673ffffffffffffffffffffffffffffffffffffffff16036109d057600180808054905061084591906115a9565b815481106108565761085561154b565b5b9060005260206000209060040201600182815481106108785761087761154b565b5b90600052602060002090600402016000820160009054906101000a900473ffffffffffffffffffffffffffffffffffffffff168160000160006101000a81548173ffffffffffffffffffffffffffffffffffffffff021916908373ffffffffffffffffffffffffffffffffffffffff1602179055506001820181600101908161090191906115f3565b50600282015481600201556003820160009054906101000a900460ff168160030160006101000a81548160ff0219169083600281111561094457610943610e81565b5b0217905550905050600180548061095e5761095d6116db565b5b6001900381819060005260206000209060040201600080820160006101000a81549073ffffffffffffffffffffffffffffffffffffffff02191690556001820160006109aa9190610afe565b60028201600090556003820160006101000a81549060ff02191690555050905550610a10565b80806001019150506107ae565b506040517faca0832a00000000000000000000000000000000000000000000000000000000815260040160405180910390fd5b50565b806000808473ffffffffffffffffffffffffffffffffffffffff1673ffffffffffffffffffffffffffffffffffffffff16815260200190815260200160002060030160006101000a81548160ff02191690836002811115610a7757610a76610e81565b5b02179055506040517f5963709b00000000000000000000000000000000000000000000000000000000815260040160405180910390fd5b6040518060800160405280600073ffffffffffffffffffffffffffffffffffffffff168152602001606081526020016000815260200160006002811115610af857610af7610e81565b5b81525090565b508054610b0a9061129c565b6000825580601f10610b1c5750610b3b565b601f016020900490600052602060002090810190610b3a9190610b3e565b5b50565b5b80821115610b57576000816000905550600101610b3f565b5090565b6000604051905090565b600080fd5b600080fd5b600073ffffffffffffffffffffffffffffffffffffffff82169050919050565b6000610b9a82610b6f565b9050919050565b610baa81610b8f565b8114610bb557600080fd5b50565b600081359050610bc781610ba1565b92915050565b600080fd5b600080fd5b6000601f19601f8301169050919050565b7f4e487b7100000000000000000000000000000000000000000000000000000000600052604160045260246000fd5b610c2082610bd7565b810181811067ffffffffffffffff82111715610c3f57610c3e610be8565b5b80604052505050565b6000610c52610b5b565b9050610c5e8282610c17565b919050565b600067ffffffffffffffff821115610c7e57610c7d610be8565b5b610c8782610bd7565b9050602081019050919050565b82818337600083830152505050565b6000610cb6610cb184610c63565b610c48565b905082815260208101848484011115610cd257610cd1610bd2565b5b610cdd848285610c94565b509392505050565b600082601f830112610cfa57610cf9610bcd565b5b8135610d0a848260208601610ca3565b91505092915050565b6000819050919050565b610d2681610d13565b8114610d3157600080fd5b50565b600081359050610d4381610d1d565b92915050565b600080600060608486031215610d6257610d61610b65565b5b6000610d7086828701610bb8565b935050602084013567ffffffffffffffff811115610d9157610d90610b6a565b5b610d9d86828701610ce5565b9250506040610dae86828701610d34565b9150509250925092565b600081519050919050565b600082825260208201905092915050565b6000819050602082019050919050565b610ded81610b8f565b82525050565b600081519050919050565b600082825260208201905092915050565b60005b83811015610e2d578082015181840152602081019050610e12565b60008484015250505050565b6000610e4482610df3565b610e4e8185610dfe565b9350610e5e818560208601610e0f565b610e6781610bd7565b840191505092915050565b610e7b81610d13565b82525050565b7f4e487b7100000000000000000000000000000000000000000000000000000000600052602160045260246000fd5b60038110610ec157610ec0610e81565b5b50565b6000819050610ed282610eb0565b919050565b6000610ee282610ec4565b9050919050565b610ef281610ed7565b82525050565b6000608083016000830151610f106000860182610de4565b5060208301518482036020860152610f288282610e39565b9150506040830151610f3d6040860182610e72565b506060830151610f506060860182610ee9565b508091505092915050565b6000610f678383610ef8565b905092915050565b6000602082019050919050565b6000610f8782610db8565b610f918185610dc3565b935083602082028501610fa385610dd4565b8060005b85811015610fdf5784840389528151610fc08582610f5b565b9450610fcb83610f6f565b925060208a01995050600181019050610fa7565b50829750879550505050505092915050565b6000602082019050818103600083015261100b8184610f7c565b905092915050565b6000806040838503121561102a57611029610b65565b5b600061103885828601610bb8565b925050602083013567ffffffffffffffff81111561105957611058610b6a565b5b61106585828601610ce5565b9150509250929050565b600080fd5b600080fd5b6003811061108657600080fd5b50565b60008135905061109881611079565b92915050565b6000608082840312156110b4576110b361106f565b5b6110be6080610c48565b905060006110ce84828501610bb8565b600083015250602082013567ffffffffffffffff8111156110f2576110f1611074565b5b6110fe84828501610ce5565b602083015250604061111284828501610d34565b604083015250606061112684828501611089565b60608301525092915050565b60006020828403121561114857611147610b65565b5b600082013567ffffffffffffffff81111561116657611165610b6a565b5b6111728482850161109e565b91505092915050565b60006020828403121561119157611190610b65565b5b600061119f84828501610bb8565b91505092915050565b60006080830160008301516111c06000860182610de4565b50602083015184820360208601526111d88282610e39565b91505060408301516111ed6040860182610e72565b5060608301516112006060860182610ee9565b508091505092915050565b6000602082019050818103600083015261122581846111a8565b905092915050565b6000806040838503121561124457611243610b65565b5b600061125285828601610bb8565b925050602061126385828601611089565b9150509250929050565b7f4e487b7100000000000000000000000000000000000000000000000000000000600052602260045260246000fd5b600060028204905060018216806112b457607f821691505b6020821081036112c7576112c661126d565b5b50919050565b60008190508160005260206000209050919050565b60006020601f8301049050919050565b600082821b905092915050565b60006008830261132f7fffffffffffffffffffffffffffffffffffffffffffffffffffffffffffffffff826112f2565b61133986836112f2565b95508019841693508086168417925050509392505050565b6000819050919050565b600061137661137161136c84610d13565b611351565b610d13565b9050919050565b6000819050919050565b6113908361135b565b6113a461139c8261137d565b8484546112ff565b825550505050565b600090565b6113b96113ac565b6113c4818484611387565b505050565b5b818110156113e8576113dd6000826113b1565b6001810190506113ca565b5050565b601f82111561142d576113fe816112cd565b611407846112e2565b81016020851015611416578190505b61142a611422856112e2565b8301826113c9565b50505b505050565b600082821c905092915050565b600061145060001984600802611432565b1980831691505092915050565b6000611469838361143f565b9150826002028217905092915050565b61148282610df3565b67ffffffffffffffff81111561149b5761149a610be8565b5b6114a5825461129c565b6114b08282856113ec565b600060209050601f8311600181146114e357600084156114d1578287015190505b6114db858261145d565b865550611543565b601f1984166114f1866112cd565b60005b82811015611519578489015182556001820191506020850194506020810190506114f4565b868310156115365784890151611532601f89168261143f565b8355505b6001600288020188555050505b505050505050565b7f4e487b7100000000000000000000000000000000000000000000000000000000600052603260045260246000fd5b7f4e487b7100000000000000000000000000000000000000000000000000000000600052601160045260246000fd5b60006115b482610d13565b91506115bf83610d13565b92508282039050818111156115d7576115d661157a565b5b92915050565b6000815490506115ec8161129c565b9050919050565b8181036116015750506116d9565b61160a826115dd565b67ffffffffffffffff81111561162357611622610be8565b5b61162d825461129c565b6116388282856113ec565b6000601f8311600181146116675760008415611655578287015490505b61165f858261145d565b8655506116d2565b601f198416611675876112cd565b9650611680866112cd565b60005b828110156116a857848901548255600182019150600185019450602081019050611683565b868310156116c557848901546116c1601f89168261143f565b8355505b6001600288020188555050505b5050505050505b565b7f4e487b7100000000000000000000000000000000000000000000000000000000600052603160045260246000fdfea26469706673582212205cb49692067203895a883b0278294003fbab9d0c484b5503e8512e936db6b2a064736f6c634300081c0033",
  "linkReferences": {},
  "deployedLinkReferences": {}
}