{
  "_format": "hh-sol-artifact-1",
  "contractName": "TodoList",
  "sourceName": "contracts/TodoList.sol",
  "abi": [
    {
      "inputs": [
        {
          "internalType": "uint256",
          "name": "_index",
          "type": "uint256"
        }
      ],
      "name": "deleteTodo",
      "outputs": [],
      "stateMutability": "nonpayable",
      "type": "function"
    },
    {
      "inputs": [],
      "name": "getAllTodos",
      "outputs": [
        {
          "components": [
            {
              "internalType": "string",
              "name": "title",
              "type": "string"
            },
            {
              "internalType": "string",
              "name": "description",
              "type": "string"
            },
            {
              "internalType": "bool",
              "name": "status",
              "type": "bool"
            }
          ],
          "internalType": "struct TodoList.Todo[]",
          "name": "",
          "type": "tuple[]"
        }
      ],
      "stateMutability": "view",
      "type": "function"
    },
    {
      "inputs": [
        {
          "internalType": "string",
          "name": "_title",
          "type": "string"
        },
        {
          "internalType": "string",
          "name": "_description",
          "type": "string"
        }
      ],
      "name": "newTodo",
      "outputs": [],
      "stateMutability": "nonpayable",
      "type": "function"
    },
    {
      "inputs": [
        {
          "internalType": "uint256",
          "name": "_index",
          "type": "uint256"
        }
      ],
      "name": "updateStatus",
      "outputs": [],
      "stateMutability": "nonpayable",
      "type": "function"
    },
    {
      "inputs": [
        {
          "internalType": "uint256",
          "name": "_index",
          "type": "uint256"
        },
        {
          "internalType": "string",
          "name": "_title",
          "type": "string"
        },
        {
          "internalType": "string",
          "name": "_description",
          "type": "string"
        }
      ],
      "name": "updateTodo",
      "outputs": [],
      "stateMutability": "nonpayable",
      "type": "function"
    }
  ],
  "bytecode": "0x6080604052348015600f57600080fd5b506113498061001f6000396000f3fe608060405234801561001057600080fd5b50600436106100575760003560e01c80636e3c67381461005c57806381e94199146100785780639264e0b314610094578063ce2bd5d5146100b0578063d61e7201146100ce575b600080fd5b610076600480360381019061007191906109ae565b6100ea565b005b610092600480360381019061008d9190610b21565b61037c565b005b6100ae60048036038101906100a99190610bac565b6104e2565b005b6100b86105bf565b6040516100c59190610dd7565b60405180910390f35b6100e860048036038101906100e391906109ae565b610799565b005b6000803373ffffffffffffffffffffffffffffffffffffffff1673ffffffffffffffffffffffffffffffffffffffff16815260200190815260200160002080549050811061016d576040517f08c379a000000000000000000000000000000000000000000000000000000000815260040161016490610e56565b60405180910390fd5b600060016000803373ffffffffffffffffffffffffffffffffffffffff1673ffffffffffffffffffffffffffffffffffffffff168152602001908152602001600020805490506101bd9190610ea5565b90508082146102dd576000803373ffffffffffffffffffffffffffffffffffffffff1673ffffffffffffffffffffffffffffffffffffffff168152602001908152602001600020818154811061021657610215610ed9565b5b90600052602060002090600302016000803373ffffffffffffffffffffffffffffffffffffffff1673ffffffffffffffffffffffffffffffffffffffff168152602001908152602001600020838154811061027457610273610ed9565b5b906000526020600020906003020160008201816000019081610296919061112a565b50600182018160010190816102ab919061112a565b506002820160009054906101000a900460ff168160020160006101000a81548160ff0219169083151502179055509050505b6000803373ffffffffffffffffffffffffffffffffffffffff1673ffffffffffffffffffffffffffffffffffffffff16815260200190815260200160002080548061032b5761032a611212565b5b6001900381819060005260206000209060030201600080820160006103509190610907565b6001820160006103609190610907565b6002820160006101000a81549060ff0219169055505090555050565b6000803373ffffffffffffffffffffffffffffffffffffffff1673ffffffffffffffffffffffffffffffffffffffff1681526020019081526020016000208054905083106103ff576040517f08c379a00000000000000000000000000000000000000000000000000000000081526004016103f690610e56565b60405180910390fd5b816000803373ffffffffffffffffffffffffffffffffffffffff1673ffffffffffffffffffffffffffffffffffffffff16815260200190815260200160002084815481106104505761044f610ed9565b5b9060005260206000209060030201600001908161046d9190611241565b50806000803373ffffffffffffffffffffffffffffffffffffffff1673ffffffffffffffffffffffffffffffffffffffff16815260200190815260200160002084815481106104bf576104be610ed9565b5b906000526020600020906003020160010190816104dc9190611241565b50505050565b600060405180606001604052808481526020018381526020016000151581525090506000803373ffffffffffffffffffffffffffffffffffffffff1673ffffffffffffffffffffffffffffffffffffffff16815260200190815260200160002081908060018154018082558091505060019003906000526020600020906003020160009091909190915060008201518160000190816105819190611241565b5060208201518160010190816105979190611241565b5060408201518160020160006101000a81548160ff0219169083151502179055505050505050565b60606000803373ffffffffffffffffffffffffffffffffffffffff1673ffffffffffffffffffffffffffffffffffffffff168152602001908152602001600020805480602002602001604051908101604052809291908181526020016000905b82821015610790578382906000526020600020906003020160405180606001604052908160008201805461065290610f37565b80601f016020809104026020016040519081016040528092919081815260200182805461067e90610f37565b80156106cb5780601f106106a0576101008083540402835291602001916106cb565b820191906000526020600020905b8154815290600101906020018083116106ae57829003601f168201915b505050505081526020016001820180546106e490610f37565b80601f016020809104026020016040519081016040528092919081815260200182805461071090610f37565b801561075d5780601f106107325761010080835404028352916020019161075d565b820191906000526020600020905b81548152906001019060200180831161074057829003601f168201915b505050505081526020016002820160009054906101000a900460ff1615151515815250508152602001906001019061061f565b50505050905090565b6000803373ffffffffffffffffffffffffffffffffffffffff1673ffffffffffffffffffffffffffffffffffffffff16815260200190815260200160002080549050811061081c576040517f08c379a000000000000000000000000000000000000000000000000000000000815260040161081390610e56565b60405180910390fd5b6000803373ffffffffffffffffffffffffffffffffffffffff1673ffffffffffffffffffffffffffffffffffffffff168152602001908152602001600020818154811061086c5761086b610ed9565b5b906000526020600020906003020160020160009054906101000a900460ff16156000803373ffffffffffffffffffffffffffffffffffffffff1673ffffffffffffffffffffffffffffffffffffffff16815260200190815260200160002082815481106108dc576108db610ed9565b5b906000526020600020906003020160020160006101000a81548160ff02191690831515021790555050565b50805461091390610f37565b6000825580601f106109255750610944565b601f0160209004906000526020600020908101906109439190610947565b5b50565b5b80821115610960576000816000905550600101610948565b5090565b6000604051905090565b600080fd5b600080fd5b6000819050919050565b61098b81610978565b811461099657600080fd5b50565b6000813590506109a881610982565b92915050565b6000602082840312156109c4576109c361096e565b5b60006109d284828501610999565b91505092915050565b600080fd5b600080fd5b6000601f19601f8301169050919050565b7f4e487b7100000000000000000000000000000000000000000000000000000000600052604160045260246000fd5b610a2e826109e5565b810181811067ffffffffffffffff82111715610a4d57610a4c6109f6565b5b80604052505050565b6000610a60610964565b9050610a6c8282610a25565b919050565b600067ffffffffffffffff821115610a8c57610a8b6109f6565b5b610a95826109e5565b9050602081019050919050565b82818337600083830152505050565b6000610ac4610abf84610a71565b610a56565b905082815260208101848484011115610ae057610adf6109e0565b5b610aeb848285610aa2565b509392505050565b600082601f830112610b0857610b076109db565b5b8135610b18848260208601610ab1565b91505092915050565b600080600060608486031215610b3a57610b3961096e565b5b6000610b4886828701610999565b935050602084013567ffffffffffffffff811115610b6957610b68610973565b5b610b7586828701610af3565b925050604084013567ffffffffffffffff811115610b9657610b95610973565b5b610ba286828701610af3565b9150509250925092565b60008060408385031215610bc357610bc261096e565b5b600083013567ffffffffffffffff811115610be157610be0610973565b5b610bed85828601610af3565b925050602083013567ffffffffffffffff811115610c0e57610c0d610973565b5b610c1a85828601610af3565b9150509250929050565b600081519050919050565b600082825260208201905092915050565b6000819050602082019050919050565b600081519050919050565b600082825260208201905092915050565b60005b83811015610c8a578082015181840152602081019050610c6f565b60008484015250505050565b6000610ca182610c50565b610cab8185610c5b565b9350610cbb818560208601610c6c565b610cc4816109e5565b840191505092915050565b60008115159050919050565b610ce481610ccf565b82525050565b60006060830160008301518482036000860152610d078282610c96565b91505060208301518482036020860152610d218282610c96565b9150506040830151610d366040860182610cdb565b508091505092915050565b6000610d4d8383610cea565b905092915050565b6000602082019050919050565b6000610d6d82610c24565b610d778185610c2f565b935083602082028501610d8985610c40565b8060005b85811015610dc55784840389528151610da68582610d41565b9450610db183610d55565b925060208a01995050600181019050610d8d565b50829750879550505050505092915050565b60006020820190508181036000830152610df18184610d62565b905092915050565b600082825260208201905092915050565b7f496e76616c696420696e64657800000000000000000000000000000000000000600082015250565b6000610e40600d83610df9565b9150610e4b82610e0a565b602082019050919050565b60006020820190508181036000830152610e6f81610e33565b9050919050565b7f4e487b7100000000000000000000000000000000000000000000000000000000600052601160045260246000fd5b6000610eb082610978565b9150610ebb83610978565b9250828203905081811115610ed357610ed2610e76565b5b92915050565b7f4e487b7100000000000000000000000000000000000000000000000000000000600052603260045260246000fd5b7f4e487b7100000000000000000000000000000000000000000000000000000000600052602260045260246000fd5b60006002820490506001821680610f4f57607f821691505b602082108103610f6257610f61610f08565b5b50919050565b600081549050610f7781610f37565b9050919050565b60008190508160005260206000209050919050565b60006020601f8301049050919050565b600082821b905092915050565b600060088302610fe07fffffffffffffffffffffffffffffffffffffffffffffffffffffffffffffffff82610fa3565b610fea8683610fa3565b95508019841693508086168417925050509392505050565b6000819050919050565b600061102761102261101d84610978565b611002565b610978565b9050919050565b6000819050919050565b6110418361100c565b61105561104d8261102e565b848454610fb0565b825550505050565b600090565b61106a61105d565b611075818484611038565b505050565b5b818110156110995761108e600082611062565b60018101905061107b565b5050565b601f8211156110de576110af81610f7e565b6110b884610f93565b810160208510156110c7578190505b6110db6110d385610f93565b83018261107a565b50505b505050565b600082821c905092915050565b6000611101600019846008026110e3565b1980831691505092915050565b600061111a83836110f0565b9150826002028217905092915050565b818103611138575050611210565b61114182610f68565b67ffffffffffffffff81111561115a576111596109f6565b5b6111648254610f37565b61116f82828561109d565b6000601f83116001811461119e576000841561118c578287015490505b611196858261110e565b865550611209565b601f1984166111ac87610f7e565b96506111b786610f7e565b60005b828110156111df578489015482556001820191506001850194506020810190506111ba565b868310156111fc57848901546111f8601f8916826110f0565b8355505b6001600288020188555050505b5050505050505b565b7f4e487b7100000000000000000000000000000000000000000000000000000000600052603160045260246000fd5b61124a82610c50565b67ffffffffffffffff811115611263576112626109f6565b5b61126d8254610f37565b61127882828561109d565b600060209050601f8311600181146112ab5760008415611299578287015190505b6112a3858261110e565b86555061130b565b601f1984166112b986610f7e565b60005b828110156112e1578489015182556001820191506020850194506020810190506112bc565b868310156112fe57848901516112fa601f8916826110f0565b8355505b6001600288020188555050505b50505050505056fea2646970667358221220e65da569eaa0fa9f8708bc12624597cc1199020791438cb1eedb3a8fc319c6c164736f6c634300081c0033",
  "linkReferences": {},
  "deployedLinkReferences": {}
}