{"abi":[{"type":"constructor","inputs":[{"name":"_boxFee","type":"uint256","internalType":"uint256"},{"name":"_subscriptionId","type":"uint64","internalType":"uint64"},{"name":"_vrfCoordinator","type":"address","internalType":"address"},{"name":"_keyHash","type":"bytes32","internalType":"bytes32"}],"stateMutability":"nonpayable"},{"type":"function","name":"COORDINATOR","inputs":[],"outputs":[{"name":"","type":"address","internalType":"contract VRFCoordinatorV2Interface"}],"stateMutability":"view"},{"type":"function","name":"addReward","inputs":[{"name":"_type","type":"uint8","internalType":"enum LootBox.RewardType"},{"name":"_tokenAddress","type":"address","internalType":"address"},{"name":"_tokenId","type":"uint256","internalType":"uint256"},{"name":"_amount","type":"uint256","internalType":"uint256"},{"name":"_weight","type":"uint256","internalType":"uint256"}],"outputs":[],"stateMutability":"nonpayable"},{"type":"function","name":"boxFee","inputs":[],"outputs":[{"name":"","type":"uint256","internalType":"uint256"}],"stateMutability":"view"},{"type":"function","name":"callbackGasLimit","inputs":[],"outputs":[{"name":"","type":"uint32","internalType":"uint32"}],"stateMutability":"view"},{"type":"function","name":"keyHash","inputs":[],"outputs":[{"name":"","type":"bytes32","internalType":"bytes32"}],"stateMutability":"view"},{"type":"function","name":"numWords","inputs":[],"outputs":[{"name":"","type":"uint32","internalType":"uint32"}],"stateMutability":"view"},{"type":"function","name":"openBox","inputs":[],"outputs":[],"stateMutability":"payable"},{"type":"function","name":"owner","inputs":[],"outputs":[{"name":"","type":"address","internalType":"address"}],"stateMutability":"view"},{"type":"function","name":"rawFulfillRandomWords","inputs":[{"name":"requestId","type":"uint256","internalType":"uint256"},{"name":"randomWords","type":"uint256[]","internalType":"uint256[]"}],"outputs":[],"stateMutability":"nonpayable"},{"type":"function","name":"renounceOwnership","inputs":[],"outputs":[],"stateMutability":"nonpayable"},{"type":"function","name":"requestConfirmations","inputs":[],"outputs":[{"name":"","type":"uint16","internalType":"uint16"}],"stateMutability":"view"},{"type":"function","name":"requestToUser","inputs":[{"name":"","type":"uint256","internalType":"uint256"}],"outputs":[{"name":"","type":"address","internalType":"address"}],"stateMutability":"view"},{"type":"function","name":"rewards","inputs":[{"name":"","type":"uint256","internalType":"uint256"}],"outputs":[{"name":"rewardType","type":"uint8","internalType":"enum LootBox.RewardType"},{"name":"tokenAddress","type":"address","internalType":"address"},{"name":"tokenId","type":"uint256","internalType":"uint256"},{"name":"amount","type":"uint256","internalType":"uint256"},{"name":"weight","type":"uint256","internalType":"uint256"}],"stateMutability":"view"},{"type":"function","name":"s_subscriptionId","inputs":[],"outputs":[{"name":"","type":"uint64","internalType":"uint64"}],"stateMutability":"view"},{"type":"function","name":"totalWeight","inputs":[],"outputs":[{"name":"","type":"uint256","internalType":"uint256"}],"stateMutability":"view"},{"type":"function","name":"transferOwnership","inputs":[{"name":"newOwner","type":"address","internalType":"address"}],"outputs":[],"stateMutability":"nonpayable"},{"type":"function","name":"updateVRFParams","inputs":[{"name":"_callbackGasLimit","type":"uint32","internalType":"uint32"},{"name":"_requestConfirmations","type":"uint16","internalType":"uint16"}],"outputs":[],"stateMutability":"nonpayable"},{"type":"function","name":"withdrawFees","inputs":[],"outputs":[],"stateMutability":"nonpayable"},{"type":"event","name":"BoxOpened","inputs":[{"name":"user","type":"address","indexed":true,"internalType":"address"},{"name":"requestId","type":"uint256","indexed":false,"internalType":"uint256"}],"anonymous":false},{"type":"event","name":"OwnershipTransferred","inputs":[{"name":"previousOwner","type":"address","indexed":true,"internalType":"address"},{"name":"newOwner","type":"address","indexed":true,"internalType":"address"}],"anonymous":false},{"type":"event","name":"RandomnessFulfilled","inputs":[{"name":"requestId","type":"uint256","indexed":false,"internalType":"uint256"},{"name":"randomWord","type":"uint256","indexed":false,"internalType":"uint256"}],"anonymous":false},{"type":"event","name":"RandomnessRequested","inputs":[{"name":"requestId","type":"uint256","indexed":false,"internalType":"uint256"}],"anonymous":false},{"type":"event","name":"RewardDistributed","inputs":[{"name":"user","type":"address","indexed":true,"internalType":"address"},{"name":"rewardType","type":"uint8","indexed":false,"internalType":"enum LootBox.RewardType"},{"name":"tokenAddress","type":"address","indexed":false,"internalType":"address"},{"name":"tokenId","type":"uint256","indexed":false,"internalType":"uint256"},{"name":"amount","type":"uint256","indexed":false,"internalType":"uint256"}],"anonymous":false},{"type":"error","name":"OnlyCoordinatorCanFulfill","inputs":[{"name":"have","type":"address","internalType":"address"},{"name":"want","type":"address","internalType":"address"}]},{"type":"error","name":"OwnableInvalidOwner","inputs":[{"name":"owner","type":"address","internalType":"address"}]},{"type":"error","name":"OwnableUnauthorizedAccount","inputs":[{"name":"account","type":"address","internalType":"address"}]}],"bytecode":{"object":"0x60a0604052620186a060065f6101000a81548163ffffffff021916908363ffffffff1602179055506003600660046101000a81548161ffff021916908361ffff16021790555060016006806101000a81548163ffffffff021916908363ffffffff160217905550348015610071575f5ffd5b506040516121093803806121098339818101604052810190610093919061038c565b81335f73ffffffffffffffffffffffffffffffffffffffff168173ffffffffffffffffffffffffffffffffffffffff1603610105575f6040517f1e4fbdf70000000000000000000000000000000000000000000000000000000081526004016100fc91906103ff565b60405180910390fd5b610114816101ca60201b60201c565b508073ffffffffffffffffffffffffffffffffffffffff1660808173ffffffffffffffffffffffffffffffffffffffff168152505050836003819055508260045f6101000a81548167ffffffffffffffff021916908367ffffffffffffffff16021790555080600581905550816006600a6101000a81548173ffffffffffffffffffffffffffffffffffffffff021916908373ffffffffffffffffffffffffffffffffffffffff16021790555050505050610418565b5f5f5f9054906101000a900473ffffffffffffffffffffffffffffffffffffffff169050815f5f6101000a81548173ffffffffffffffffffffffffffffffffffffffff021916908373ffffffffffffffffffffffffffffffffffffffff1602179055508173ffffffffffffffffffffffffffffffffffffffff168173ffffffffffffffffffffffffffffffffffffffff167f8be0079c531659141344cd1fd0a4f28419497f9722a3daafe3b4186f6b6457e060405160405180910390a35050565b5f5ffd5b5f819050919050565b6102a18161028f565b81146102ab575f5ffd5b50565b5f815190506102bc81610298565b92915050565b5f67ffffffffffffffff82169050919050565b6102de816102c2565b81146102e8575f5ffd5b50565b5f815190506102f9816102d5565b92915050565b5f73ffffffffffffffffffffffffffffffffffffffff82169050919050565b5f610328826102ff565b9050919050565b6103388161031e565b8114610342575f5ffd5b50565b5f815190506103538161032f565b92915050565b5f819050919050565b61036b81610359565b8114610375575f5ffd5b50565b5f8151905061038681610362565b92915050565b5f5f5f5f608085870312156103a4576103a361028b565b5b5f6103b1878288016102ae565b94505060206103c2878288016102eb565b93505060406103d387828801610345565b92505060606103e487828801610378565b91505092959194509250565b6103f98161031e565b82525050565b5f6020820190506104125f8301846103f0565b92915050565b608051611cd26104375f395f81816103e001526104340152611cd25ff3fe608060405260043610610108575f3560e01c80637ccfd7fc11610094578063b0fb162f11610063578063b0fb162f14610314578063bae4e5301461033e578063c2e952c714610366578063f2fde38b14610370578063f301af421461039857610108565b80637ccfd7fc1461026c5780638ac00021146102965780638da5cb5b146102c057806396c82e57146102ea57610108565b80633e2f7eb5116100db5780633e2f7eb5146101b2578063476343ee146101ee57806361728f3914610204578063715018a61461022e5780637aadb8e51461024457610108565b80630a1053fb1461010c5780631fe543e31461013657806324f746971461015e5780633b2bcbf114610188575b5f5ffd5b348015610117575f5ffd5b506101206103d8565b60405161012d919061118a565b60405180910390f35b348015610141575f5ffd5b5061015c6004803603810190610157919061132e565b6103de565b005b348015610169575f5ffd5b5061017261049e565b60405161017f91906113a6565b60405180910390f35b348015610193575f5ffd5b5061019c6104b3565b6040516101a99190611439565b60405180910390f35b3480156101bd575f5ffd5b506101d860048036038101906101d39190611452565b6104d9565b6040516101e5919061149d565b60405180910390f35b3480156101f9575f5ffd5b50610202610509565b005b34801561020f575f5ffd5b5061021861055e565b60405161022591906114ce565b60405180910390f35b348015610239575f5ffd5b50610242610564565b005b34801561024f575f5ffd5b5061026a60048036038101906102659190611534565b610577565b005b348015610277575f5ffd5b506102806106ea565b60405161028d91906113a6565b60405180910390f35b3480156102a1575f5ffd5b506102aa6106fe565b6040516102b791906115cd565b60405180910390f35b3480156102cb575f5ffd5b506102d4610717565b6040516102e1919061149d565b60405180910390f35b3480156102f5575f5ffd5b506102fe61073e565b60405161030b919061118a565b60405180910390f35b34801561031f575f5ffd5b50610328610744565b6040516103359190611602565b60405180910390f35b348015610349575f5ffd5b50610364600480360381019061035f919061166f565b610758565b005b61036e6107a1565b005b34801561037b575f5ffd5b50610396600480360381019061039191906116ad565b6109ee565b005b3480156103a3575f5ffd5b506103be60048036038101906103b99190611452565b610a72565b6040516103cf95949392919061174b565b60405180910390f35b60035481565b7f000000000000000000000000000000000000000000000000000000000000000073ffffffffffffffffffffffffffffffffffffffff163373ffffffffffffffffffffffffffffffffffffffff161461049057337f00000000000000000000000000000000000000000000000000000000000000006040517f1cf993f400000000000000000000000000000000000000000000000000000000815260040161048792919061179c565b60405180910390fd5b61049a8282610ade565b5050565b60065f9054906101000a900463ffffffff1681565b6006600a9054906101000a900473ffffffffffffffffffffffffffffffffffffffff1681565b6007602052805f5260405f205f915054906101000a900473ffffffffffffffffffffffffffffffffffffffff1681565b610511610fd1565b610519610717565b73ffffffffffffffffffffffffffffffffffffffff166108fc4790811502906040515f60405180830381858888f1935050505015801561055b573d5f5f3e3d5ffd5b50565b60055481565b61056c610fd1565b6105755f611058565b565b61057f610fd1565b5f81116105c1576040517f08c379a00000000000000000000000000000000000000000000000000000000081526004016105b89061181d565b60405180910390fd5b60016040518060a001604052808760038111156105e1576105e06116d8565b5b81526020018673ffffffffffffffffffffffffffffffffffffffff16815260200185815260200184815260200183815250908060018154018082558091505060019003905f5260205f2090600402015f909190919091505f820151815f015f6101000a81548160ff021916908360038111156106605761065f6116d8565b5b02179055506020820151815f0160016101000a81548173ffffffffffffffffffffffffffffffffffffffff021916908373ffffffffffffffffffffffffffffffffffffffff16021790555060408201518160010155606082015181600201556080820151816003015550508060025f8282546106dc9190611868565b925050819055505050505050565b60068054906101000a900463ffffffff1681565b60045f9054906101000a900467ffffffffffffffff1681565b5f5f5f9054906101000a900473ffffffffffffffffffffffffffffffffffffffff16905090565b60025481565b600660049054906101000a900461ffff1681565b610760610fd1565b8160065f6101000a81548163ffffffff021916908363ffffffff16021790555080600660046101000a81548161ffff021916908361ffff1602179055505050565b60035434146107e5576040517f08c379a00000000000000000000000000000000000000000000000000000000081526004016107dc906118e5565b60405180910390fd5b5f60025411610829576040517f08c379a00000000000000000000000000000000000000000000000000000000081526004016108209061194d565b60405180910390fd5b5f6006600a9054906101000a900473ffffffffffffffffffffffffffffffffffffffff1673ffffffffffffffffffffffffffffffffffffffff16635d3b1d3060055460045f9054906101000a900467ffffffffffffffff16600660049054906101000a900461ffff1660065f9054906101000a900463ffffffff1660068054906101000a900463ffffffff166040518663ffffffff1660e01b81526004016108d595949392919061196b565b6020604051808303815f875af11580156108f1573d5f5f3e3d5ffd5b505050506040513d601f19601f8201168201806040525081019061091591906119d0565b90503360075f8381526020019081526020015f205f6101000a81548173ffffffffffffffffffffffffffffffffffffffff021916908373ffffffffffffffffffffffffffffffffffffffff1602179055503373ffffffffffffffffffffffffffffffffffffffff167fb73d415d4554d9bc64f3fadea1d75caaeb0f4db5b74538b5e5dcbce2660e6240826040516109ac919061118a565b60405180910390a27f9ac10fb18c93d33ad7b0a941897aef048d0f8d30756684e82b4552ba12764d45816040516109e3919061118a565b60405180910390a150565b6109f6610fd1565b5f73ffffffffffffffffffffffffffffffffffffffff168173ffffffffffffffffffffffffffffffffffffffff1603610a66575f6040517f1e4fbdf7000000000000000000000000000000000000000000000000000000008152600401610a5d919061149d565b60405180910390fd5b610a6f81611058565b50565b60018181548110610a81575f80fd5b905f5260205f2090600402015f91509050805f015f9054906101000a900460ff1690805f0160019054906101000a900473ffffffffffffffffffffffffffffffffffffffff16908060010154908060020154908060030154905085565b5f60075f8481526020019081526020015f205f9054906101000a900473ffffffffffffffffffffffffffffffffffffffff1690505f73ffffffffffffffffffffffffffffffffffffffff168173ffffffffffffffffffffffffffffffffffffffff1603610b80576040517f08c379a0000000000000000000000000000000000000000000000000000000008152600401610b7790611a45565b60405180910390fd5b5f825f81518110610b9457610b93611a63565b5b602002602001015190507f546aca7b2683440b8f02fa95faeb8efc79dd0f16af3d815a002742ea6f76116c8482604051610bcf929190611a90565b60405180910390a15f60025482610be69190611ae4565b90505f5f9050610bf4611120565b5f5f90505b600180549050811015610d2a5760018181548110610c1a57610c19611a63565b5b905f5260205f2090600402016003015483610c359190611868565b925082841015610d1d5760018181548110610c5357610c52611a63565b5b905f5260205f2090600402016040518060a00160405290815f82015f9054906101000a900460ff166003811115610c8d57610c8c6116d8565b5b6003811115610c9f57610c9e6116d8565b5b81526020015f820160019054906101000a900473ffffffffffffffffffffffffffffffffffffffff1673ffffffffffffffffffffffffffffffffffffffff1673ffffffffffffffffffffffffffffffffffffffff16815260200160018201548152602001600282015481526020016003820154815250509150610d2a565b8080600101915050610bf9565b5060016003811115610d3f57610d3e6116d8565b5b815f01516003811115610d5557610d546116d8565b5b03610de357806020015173ffffffffffffffffffffffffffffffffffffffff1663a9059cbb8683606001516040518363ffffffff1660e01b8152600401610d9d929190611b14565b6020604051808303815f875af1158015610db9573d5f5f3e3d5ffd5b505050506040513d601f19601f82011682018060405250810190610ddd9190611b70565b50610f32565b60026003811115610df757610df66116d8565b5b815f01516003811115610e0d57610e0c6116d8565b5b03610e8957806020015173ffffffffffffffffffffffffffffffffffffffff166342842e0e308784604001516040518463ffffffff1660e01b8152600401610e5793929190611b9b565b5f604051808303815f87803b158015610e6e575f5ffd5b505af1158015610e80573d5f5f3e3d5ffd5b50505050610f31565b600380811115610e9c57610e9b6116d8565b5b815f01516003811115610eb257610eb16116d8565b5b03610f3057806020015173ffffffffffffffffffffffffffffffffffffffff1663f242432a3087846040015185606001516040518563ffffffff1660e01b8152600401610f029493929190611c03565b5f604051808303815f87803b158015610f19575f5ffd5b505af1158015610f2b573d5f5f3e3d5ffd5b505050505b5b5b8473ffffffffffffffffffffffffffffffffffffffff167f30f613dac635d65665a30427c19714a02dd99e3415b63c8d54c5ce8c11172929825f0151836020015184604001518560600151604051610f8d9493929190611c59565b60405180910390a260075f8881526020019081526020015f205f6101000a81549073ffffffffffffffffffffffffffffffffffffffff021916905550505050505050565b610fd9611119565b73ffffffffffffffffffffffffffffffffffffffff16610ff7610717565b73ffffffffffffffffffffffffffffffffffffffff16146110565761101a611119565b6040517f118cdaa700000000000000000000000000000000000000000000000000000000815260040161104d919061149d565b60405180910390fd5b565b5f5f5f9054906101000a900473ffffffffffffffffffffffffffffffffffffffff169050815f5f6101000a81548173ffffffffffffffffffffffffffffffffffffffff021916908373ffffffffffffffffffffffffffffffffffffffff1602179055508173ffffffffffffffffffffffffffffffffffffffff168173ffffffffffffffffffffffffffffffffffffffff167f8be0079c531659141344cd1fd0a4f28419497f9722a3daafe3b4186f6b6457e060405160405180910390a35050565b5f33905090565b6040518060a001604052805f600381111561113e5761113d6116d8565b5b81526020015f73ffffffffffffffffffffffffffffffffffffffff1681526020015f81526020015f81526020015f81525090565b5f819050919050565b61118481611172565b82525050565b5f60208201905061119d5f83018461117b565b92915050565b5f604051905090565b5f5ffd5b5f5ffd5b6111bd81611172565b81146111c7575f5ffd5b50565b5f813590506111d8816111b4565b92915050565b5f5ffd5b5f601f19601f8301169050919050565b7f4e487b71000000000000000000000000000000000000000000000000000000005f52604160045260245ffd5b611228826111e2565b810181811067ffffffffffffffff82111715611247576112466111f2565b5b80604052505050565b5f6112596111a3565b9050611265828261121f565b919050565b5f67ffffffffffffffff821115611284576112836111f2565b5b602082029050602081019050919050565b5f5ffd5b5f6112ab6112a68461126a565b611250565b905080838252602082019050602084028301858111156112ce576112cd611295565b5b835b818110156112f757806112e388826111ca565b8452602084019350506020810190506112d0565b5050509392505050565b5f82601f830112611315576113146111de565b5b8135611325848260208601611299565b91505092915050565b5f5f60408385031215611344576113436111ac565b5b5f611351858286016111ca565b925050602083013567ffffffffffffffff811115611372576113716111b0565b5b61137e85828601611301565b9150509250929050565b5f63ffffffff82169050919050565b6113a081611388565b82525050565b5f6020820190506113b95f830184611397565b92915050565b5f73ffffffffffffffffffffffffffffffffffffffff82169050919050565b5f819050919050565b5f6114016113fc6113f7846113bf565b6113de565b6113bf565b9050919050565b5f611412826113e7565b9050919050565b5f61142382611408565b9050919050565b61143381611419565b82525050565b5f60208201905061144c5f83018461142a565b92915050565b5f60208284031215611467576114666111ac565b5b5f611474848285016111ca565b91505092915050565b5f611487826113bf565b9050919050565b6114978161147d565b82525050565b5f6020820190506114b05f83018461148e565b92915050565b5f819050919050565b6114c8816114b6565b82525050565b5f6020820190506114e15f8301846114bf565b92915050565b600481106114f3575f5ffd5b50565b5f81359050611504816114e7565b92915050565b6115138161147d565b811461151d575f5ffd5b50565b5f8135905061152e8161150a565b92915050565b5f5f5f5f5f60a0868803121561154d5761154c6111ac565b5b5f61155a888289016114f6565b955050602061156b88828901611520565b945050604061157c888289016111ca565b935050606061158d888289016111ca565b925050608061159e888289016111ca565b9150509295509295909350565b5f67ffffffffffffffff82169050919050565b6115c7816115ab565b82525050565b5f6020820190506115e05f8301846115be565b92915050565b5f61ffff82169050919050565b6115fc816115e6565b82525050565b5f6020820190506116155f8301846115f3565b92915050565b61162481611388565b811461162e575f5ffd5b50565b5f8135905061163f8161161b565b92915050565b61164e816115e6565b8114611658575f5ffd5b50565b5f8135905061166981611645565b92915050565b5f5f60408385031215611685576116846111ac565b5b5f61169285828601611631565b92505060206116a38582860161165b565b9150509250929050565b5f602082840312156116c2576116c16111ac565b5b5f6116cf84828501611520565b91505092915050565b7f4e487b71000000000000000000000000000000000000000000000000000000005f52602160045260245ffd5b60048110611716576117156116d8565b5b50565b5f81905061172682611705565b919050565b5f61173582611719565b9050919050565b6117458161172b565b82525050565b5f60a08201905061175e5f83018861173c565b61176b602083018761148e565b611778604083018661117b565b611785606083018561117b565b611792608083018461117b565b9695505050505050565b5f6040820190506117af5f83018561148e565b6117bc602083018461148e565b9392505050565b5f82825260208201905092915050565b7f576569676874206d75737420626520706f7369746976650000000000000000005f82015250565b5f6118076017836117c3565b9150611812826117d3565b602082019050919050565b5f6020820190508181035f830152611834816117fb565b9050919050565b7f4e487b71000000000000000000000000000000000000000000000000000000005f52601160045260245ffd5b5f61187282611172565b915061187d83611172565b92508282019050808211156118955761189461183b565b5b92915050565b7f496e636f727265637420666565000000000000000000000000000000000000005f82015250565b5f6118cf600d836117c3565b91506118da8261189b565b602082019050919050565b5f6020820190508181035f8301526118fc816118c3565b9050919050565b7f4e6f207265776172647320617661696c61626c650000000000000000000000005f82015250565b5f6119376014836117c3565b915061194282611903565b602082019050919050565b5f6020820190508181035f8301526119648161192b565b9050919050565b5f60a08201905061197e5f8301886114bf565b61198b60208301876115be565b61199860408301866115f3565b6119a56060830185611397565b6119b26080830184611397565b9695505050505050565b5f815190506119ca816111b4565b92915050565b5f602082840312156119e5576119e46111ac565b5b5f6119f2848285016119bc565b91505092915050565b7f496e76616c6964207265717565737400000000000000000000000000000000005f82015250565b5f611a2f600f836117c3565b9150611a3a826119fb565b602082019050919050565b5f6020820190508181035f830152611a5c81611a23565b9050919050565b7f4e487b71000000000000000000000000000000000000000000000000000000005f52603260045260245ffd5b5f604082019050611aa35f83018561117b565b611ab0602083018461117b565b9392505050565b7f4e487b71000000000000000000000000000000000000000000000000000000005f52601260045260245ffd5b5f611aee82611172565b9150611af983611172565b925082611b0957611b08611ab7565b5b828206905092915050565b5f604082019050611b275f83018561148e565b611b34602083018461117b565b9392505050565b5f8115159050919050565b611b4f81611b3b565b8114611b59575f5ffd5b50565b5f81519050611b6a81611b46565b92915050565b5f60208284031215611b8557611b846111ac565b5b5f611b9284828501611b5c565b91505092915050565b5f606082019050611bae5f83018661148e565b611bbb602083018561148e565b611bc8604083018461117b565b949350505050565b5f82825260208201905092915050565b50565b5f611bee5f83611bd0565b9150611bf982611be0565b5f82019050919050565b5f60a082019050611c165f83018761148e565b611c23602083018661148e565b611c30604083018561117b565b611c3d606083018461117b565b8181036080830152611c4e81611be3565b905095945050505050565b5f608082019050611c6c5f83018761173c565b611c79602083018661148e565b611c86604083018561117b565b611c93606083018461117b565b9594505050505056fea26469706673582212204c447c215a959bc3410e0548dc1779071d8bad637c24c26ef294e5124ae9af1a64736f6c634300081e0033","linkReferences":{}},"methodIdentifiers":{"COORDINATOR()":"3b2bcbf1","addReward(uint8,address,uint256,uint256,uint256)":"7aadb8e5","boxFee()":"0a1053fb","callbackGasLimit()":"24f74697","keyHash()":"61728f39","numWords()":"7ccfd7fc","openBox()":"c2e952c7","owner()":"8da5cb5b","rawFulfillRandomWords(uint256,uint256[])":"1fe543e3","renounceOwnership()":"715018a6","requestConfirmations()":"b0fb162f","requestToUser(uint256)":"3e2f7eb5","rewards(uint256)":"f301af42","s_subscriptionId()":"8ac00021","totalWeight()":"96c82e57","transferOwnership(address)":"f2fde38b","updateVRFParams(uint32,uint16)":"bae4e530","withdrawFees()":"476343ee"},"id":44}