{"abi":[{"type":"constructor","inputs":[],"stateMutability":"nonpayable"},{"type":"function","name":"balanceOf","inputs":[{"name":"account","type":"address","internalType":"address"},{"name":"id","type":"uint256","internalType":"uint256"}],"outputs":[{"name":"","type":"uint256","internalType":"uint256"}],"stateMutability":"view"},{"type":"function","name":"balanceOfBatch","inputs":[{"name":"accounts","type":"address[]","internalType":"address[]"},{"name":"ids","type":"uint256[]","internalType":"uint256[]"}],"outputs":[{"name":"","type":"uint256[]","internalType":"uint256[]"}],"stateMutability":"view"},{"type":"function","name":"isApprovedForAll","inputs":[{"name":"account","type":"address","internalType":"address"},{"name":"operator","type":"address","internalType":"address"}],"outputs":[{"name":"","type":"bool","internalType":"bool"}],"stateMutability":"view"},{"type":"function","name":"mint","inputs":[{"name":"to","type":"address","internalType":"address"},{"name":"id","type":"uint256","internalType":"uint256"},{"name":"amount","type":"uint256","internalType":"uint256"}],"outputs":[],"stateMutability":"nonpayable"},{"type":"function","name":"safeBatchTransferFrom","inputs":[{"name":"from","type":"address","internalType":"address"},{"name":"to","type":"address","internalType":"address"},{"name":"ids","type":"uint256[]","internalType":"uint256[]"},{"name":"values","type":"uint256[]","internalType":"uint256[]"},{"name":"data","type":"bytes","internalType":"bytes"}],"outputs":[],"stateMutability":"nonpayable"},{"type":"function","name":"safeTransferFrom","inputs":[{"name":"from","type":"address","internalType":"address"},{"name":"to","type":"address","internalType":"address"},{"name":"id","type":"uint256","internalType":"uint256"},{"name":"value","type":"uint256","internalType":"uint256"},{"name":"data","type":"bytes","internalType":"bytes"}],"outputs":[],"stateMutability":"nonpayable"},{"type":"function","name":"setApprovalForAll","inputs":[{"name":"operator","type":"address","internalType":"address"},{"name":"approved","type":"bool","internalType":"bool"}],"outputs":[],"stateMutability":"nonpayable"},{"type":"function","name":"supportsInterface","inputs":[{"name":"interfaceId","type":"bytes4","internalType":"bytes4"}],"outputs":[{"name":"","type":"bool","internalType":"bool"}],"stateMutability":"view"},{"type":"function","name":"uri","inputs":[{"name":"","type":"uint256","internalType":"uint256"}],"outputs":[{"name":"","type":"string","internalType":"string"}],"stateMutability":"view"},{"type":"event","name":"ApprovalForAll","inputs":[{"name":"account","type":"address","indexed":true,"internalType":"address"},{"name":"operator","type":"address","indexed":true,"internalType":"address"},{"name":"approved","type":"bool","indexed":false,"internalType":"bool"}],"anonymous":false},{"type":"event","name":"TransferBatch","inputs":[{"name":"operator","type":"address","indexed":true,"internalType":"address"},{"name":"from","type":"address","indexed":true,"internalType":"address"},{"name":"to","type":"address","indexed":true,"internalType":"address"},{"name":"ids","type":"uint256[]","indexed":false,"internalType":"uint256[]"},{"name":"values","type":"uint256[]","indexed":false,"internalType":"uint256[]"}],"anonymous":false},{"type":"event","name":"TransferSingle","inputs":[{"name":"operator","type":"address","indexed":true,"internalType":"address"},{"name":"from","type":"address","indexed":true,"internalType":"address"},{"name":"to","type":"address","indexed":true,"internalType":"address"},{"name":"id","type":"uint256","indexed":false,"internalType":"uint256"},{"name":"value","type":"uint256","indexed":false,"internalType":"uint256"}],"anonymous":false},{"type":"event","name":"URI","inputs":[{"name":"value","type":"string","indexed":false,"internalType":"string"},{"name":"id","type":"uint256","indexed":true,"internalType":"uint256"}],"anonymous":false},{"type":"error","name":"ERC1155InsufficientBalance","inputs":[{"name":"sender","type":"address","internalType":"address"},{"name":"balance","type":"uint256","internalType":"uint256"},{"name":"needed","type":"uint256","internalType":"uint256"},{"name":"tokenId","type":"uint256","internalType":"uint256"}]},{"type":"error","name":"ERC1155InvalidApprover","inputs":[{"name":"approver","type":"address","internalType":"address"}]},{"type":"error","name":"ERC1155InvalidArrayLength","inputs":[{"name":"idsLength","type":"uint256","internalType":"uint256"},{"name":"valuesLength","type":"uint256","internalType":"uint256"}]},{"type":"error","name":"ERC1155InvalidOperator","inputs":[{"name":"operator","type":"address","internalType":"address"}]},{"type":"error","name":"ERC1155InvalidReceiver","inputs":[{"name":"receiver","type":"address","internalType":"address"}]},{"type":"error","name":"ERC1155InvalidSender","inputs":[{"name":"sender","type":"address","internalType":"address"}]},{"type":"error","name":"ERC1155MissingApprovalForAll","inputs":[{"name":"operator","type":"address","internalType":"address"},{"name":"owner","type":"address","internalType":"address"}]}],"bytecode":{"object":"0x608060405234801561000f575f5ffd5b5060405180602001604052805f81525061002e8161003460201b60201c565b50610353565b80600290816100439190610284565b5050565b5f81519050919050565b7f4e487b71000000000000000000000000000000000000000000000000000000005f52604160045260245ffd5b7f4e487b71000000000000000000000000000000000000000000000000000000005f52602260045260245ffd5b5f60028204905060018216806100c257607f821691505b6020821081036100d5576100d461007e565b5b50919050565b5f819050815f5260205f209050919050565b5f6020601f8301049050919050565b5f82821b905092915050565b5f600883026101377fffffffffffffffffffffffffffffffffffffffffffffffffffffffffffffffff826100fc565b61014186836100fc565b95508019841693508086168417925050509392505050565b5f819050919050565b5f819050919050565b5f61018561018061017b84610159565b610162565b610159565b9050919050565b5f819050919050565b61019e8361016b565b6101b26101aa8261018c565b848454610108565b825550505050565b5f5f905090565b6101c96101ba565b6101d4818484610195565b505050565b5b818110156101f7576101ec5f826101c1565b6001810190506101da565b5050565b601f82111561023c5761020d816100db565b610216846100ed565b81016020851015610225578190505b610239610231856100ed565b8301826101d9565b50505b505050565b5f82821c905092915050565b5f61025c5f1984600802610241565b1980831691505092915050565b5f610274838361024d565b9150826002028217905092915050565b61028d82610047565b67ffffffffffffffff8111156102a6576102a5610051565b5b6102b082546100ab565b6102bb8282856101fb565b5f60209050601f8311600181146102ec575f84156102da578287015190505b6102e48582610269565b86555061034b565b601f1984166102fa866100db565b5f5b82811015610321578489015182556001820191506020850194506020810190506102fc565b8683101561033e578489015161033a601f89168261024d565b8355505b6001600288020188555050505b505050505050565b611f52806103605f395ff3fe608060405234801561000f575f5ffd5b5060043610610090575f3560e01c80632eb2c2d6116100645780632eb2c2d6146101405780634e1273f41461015c578063a22cb4651461018c578063e985e9c5146101a8578063f242432a146101d857610090565b8062fdd58e1461009457806301ffc9a7146100c45780630e89341c146100f4578063156e29f614610124575b5f5ffd5b6100ae60048036038101906100a991906113d0565b6101f4565b6040516100bb919061141d565b60405180910390f35b6100de60048036038101906100d9919061148b565b610249565b6040516100eb91906114d0565b60405180910390f35b61010e600480360381019061010991906114e9565b61032a565b60405161011b9190611584565b60405180910390f35b61013e600480360381019061013991906115a4565b6103bc565b005b61015a600480360381019061015591906117e4565b6103db565b005b6101766004803603810190610171919061196f565b610482565b6040516101839190611a9c565b60405180910390f35b6101a660048036038101906101a19190611ae6565b61058c565b005b6101c260048036038101906101bd9190611b24565b6105a2565b6040516101cf91906114d0565b60405180910390f35b6101f260048036038101906101ed9190611b62565b610630565b005b5f5f5f8381526020019081526020015f205f8473ffffffffffffffffffffffffffffffffffffffff1673ffffffffffffffffffffffffffffffffffffffff1681526020019081526020015f2054905092915050565b5f7fd9b67a26000000000000000000000000000000000000000000000000000000007bffffffffffffffffffffffffffffffffffffffffffffffffffffffff1916827bffffffffffffffffffffffffffffffffffffffffffffffffffffffff1916148061031357507f0e89341c000000000000000000000000000000000000000000000000000000007bffffffffffffffffffffffffffffffffffffffffffffffffffffffff1916827bffffffffffffffffffffffffffffffffffffffffffffffffffffffff1916145b806103235750610322826106d7565b5b9050919050565b60606002805461033990611c22565b80601f016020809104026020016040519081016040528092919081815260200182805461036590611c22565b80156103b05780601f10610387576101008083540402835291602001916103b0565b820191905f5260205f20905b81548152906001019060200180831161039357829003601f168201915b50505050509050919050565b6103d683838360405180602001604052805f815250610740565b505050565b5f6103e46107d5565b90508073ffffffffffffffffffffffffffffffffffffffff168673ffffffffffffffffffffffffffffffffffffffff1614158015610429575061042786826105a2565b155b1561046d5780866040517fe237d922000000000000000000000000000000000000000000000000000000008152600401610464929190611c61565b60405180910390fd5b61047a86868686866107dc565b505050505050565b606081518351146104ce57815183516040517f5b0599910000000000000000000000000000000000000000000000000000000081526004016104c5929190611c88565b60405180910390fd5b5f835167ffffffffffffffff8111156104ea576104e96115f8565b5b6040519080825280602002602001820160405280156105185781602001602082028036833780820191505090505b5090505f5f90505b84518110156105815761055761053f82876108d090919063ffffffff16565b61055283876108e390919063ffffffff16565b6101f4565b82828151811061056a57610569611caf565b5b602002602001018181525050806001019050610520565b508091505092915050565b61059e6105976107d5565b83836108f6565b5050565b5f60015f8473ffffffffffffffffffffffffffffffffffffffff1673ffffffffffffffffffffffffffffffffffffffff1681526020019081526020015f205f8373ffffffffffffffffffffffffffffffffffffffff1673ffffffffffffffffffffffffffffffffffffffff1681526020019081526020015f205f9054906101000a900460ff16905092915050565b5f6106396107d5565b90508073ffffffffffffffffffffffffffffffffffffffff168673ffffffffffffffffffffffffffffffffffffffff161415801561067e575061067c86826105a2565b155b156106c25780866040517fe237d9220000000000000000000000000000000000000000000000000000000081526004016106b9929190611c61565b60405180910390fd5b6106cf8686868686610a5f565b505050505050565b5f7f01ffc9a7000000000000000000000000000000000000000000000000000000007bffffffffffffffffffffffffffffffffffffffffffffffffffffffff1916827bffffffffffffffffffffffffffffffffffffffffffffffffffffffff1916149050919050565b5f73ffffffffffffffffffffffffffffffffffffffff168473ffffffffffffffffffffffffffffffffffffffff16036107b0575f6040517f57f447ce0000000000000000000000000000000000000000000000000000000081526004016107a79190611cdc565b60405180910390fd5b5f5f6107bc8585610b65565b915091506107cd5f87848487610b95565b505050505050565b5f33905090565b5f73ffffffffffffffffffffffffffffffffffffffff168473ffffffffffffffffffffffffffffffffffffffff160361084c575f6040517f57f447ce0000000000000000000000000000000000000000000000000000000081526004016108439190611cdc565b60405180910390fd5b5f73ffffffffffffffffffffffffffffffffffffffff168573ffffffffffffffffffffffffffffffffffffffff16036108bc575f6040517f01a835140000000000000000000000000000000000000000000000000000000081526004016108b39190611cdc565b60405180910390fd5b6108c98585858585610b95565b5050505050565b5f60208202602084010151905092915050565b5f60208202602084010151905092915050565b5f73ffffffffffffffffffffffffffffffffffffffff168273ffffffffffffffffffffffffffffffffffffffff1603610966575f6040517fced3e10000000000000000000000000000000000000000000000000000000000815260040161095d9190611cdc565b60405180910390fd5b8060015f8573ffffffffffffffffffffffffffffffffffffffff1673ffffffffffffffffffffffffffffffffffffffff1681526020019081526020015f205f8473ffffffffffffffffffffffffffffffffffffffff1673ffffffffffffffffffffffffffffffffffffffff1681526020019081526020015f205f6101000a81548160ff0219169083151502179055508173ffffffffffffffffffffffffffffffffffffffff168373ffffffffffffffffffffffffffffffffffffffff167f17307eab39ab6107e8899845ad3d59bd9653f200f220920489ca2b5937696c3183604051610a5291906114d0565b60405180910390a3505050565b5f73ffffffffffffffffffffffffffffffffffffffff168473ffffffffffffffffffffffffffffffffffffffff1603610acf575f6040517f57f447ce000000000000000000000000000000000000000000000000000000008152600401610ac69190611cdc565b60405180910390fd5b5f73ffffffffffffffffffffffffffffffffffffffff168573ffffffffffffffffffffffffffffffffffffffff1603610b3f575f6040517f01a83514000000000000000000000000000000000000000000000000000000008152600401610b369190611cdc565b60405180910390fd5b5f5f610b4b8585610b65565b91509150610b5c8787848487610b95565b50505050505050565b60608060405191506001825283602083015260408201905060018152826020820152604081016040529250929050565b610ba185858585610c41565b5f73ffffffffffffffffffffffffffffffffffffffff168473ffffffffffffffffffffffffffffffffffffffff1614610c3a575f610bdd6107d5565b90506001845103610c29575f610bfc5f866108e390919063ffffffff16565b90505f610c125f866108e390919063ffffffff16565b9050610c22838989858589610fd4565b5050610c38565b610c37818787878787611183565b5b505b5050505050565b8051825114610c8b57815181516040517f5b059991000000000000000000000000000000000000000000000000000000008152600401610c82929190611c88565b60405180910390fd5b5f610c946107d5565b90505f5f90505b8351811015610e93575f610cb882866108e390919063ffffffff16565b90505f610cce83866108e390919063ffffffff16565b90505f73ffffffffffffffffffffffffffffffffffffffff168873ffffffffffffffffffffffffffffffffffffffff1614610df1575f5f5f8481526020019081526020015f205f8a73ffffffffffffffffffffffffffffffffffffffff1673ffffffffffffffffffffffffffffffffffffffff1681526020019081526020015f2054905081811015610d9d57888183856040517f03dee4c5000000000000000000000000000000000000000000000000000000008152600401610d949493929190611cf5565b60405180910390fd5b8181035f5f8581526020019081526020015f205f8b73ffffffffffffffffffffffffffffffffffffffff1673ffffffffffffffffffffffffffffffffffffffff1681526020019081526020015f2081905550505b5f73ffffffffffffffffffffffffffffffffffffffff168773ffffffffffffffffffffffffffffffffffffffff1614610e8657805f5f8481526020019081526020015f205f8973ffffffffffffffffffffffffffffffffffffffff1673ffffffffffffffffffffffffffffffffffffffff1681526020019081526020015f205f828254610e7e9190611d65565b925050819055505b5050806001019050610c9b565b506001835103610f4e575f610eb15f856108e390919063ffffffff16565b90505f610ec75f856108e390919063ffffffff16565b90508573ffffffffffffffffffffffffffffffffffffffff168773ffffffffffffffffffffffffffffffffffffffff168473ffffffffffffffffffffffffffffffffffffffff167fc3d58168c5ae7397731d063d5bbf3d657854427343f4c083240f7aacaa2d0f628585604051610f3f929190611c88565b60405180910390a45050610fcd565b8373ffffffffffffffffffffffffffffffffffffffff168573ffffffffffffffffffffffffffffffffffffffff168273ffffffffffffffffffffffffffffffffffffffff167f4a39dc06d4c0dbc64b70af90fd698a233a518aa5d07e595d983b8c0526c8f7fb8686604051610fc4929190611d98565b60405180910390a45b5050505050565b5f8473ffffffffffffffffffffffffffffffffffffffff163b111561117b578373ffffffffffffffffffffffffffffffffffffffff1663f23a6e6187878686866040518663ffffffff1660e01b8152600401611034959493929190611e1f565b6020604051808303815f875af192505050801561106f57506040513d601f19601f8201168201806040525081019061106c9190611e8b565b60015b6110f0573d805f811461109d576040519150601f19603f3d011682016040523d82523d5f602084013e6110a2565b606091505b505f8151036110e857846040517f57f447ce0000000000000000000000000000000000000000000000000000000081526004016110df9190611cdc565b60405180910390fd5b805181602001fd5b63f23a6e6160e01b7bffffffffffffffffffffffffffffffffffffffffffffffffffffffff1916817bffffffffffffffffffffffffffffffffffffffffffffffffffffffff19161461117957846040517f57f447ce0000000000000000000000000000000000000000000000000000000081526004016111709190611cdc565b60405180910390fd5b505b505050505050565b5f8473ffffffffffffffffffffffffffffffffffffffff163b111561132a578373ffffffffffffffffffffffffffffffffffffffff1663bc197c8187878686866040518663ffffffff1660e01b81526004016111e3959493929190611eb6565b6020604051808303815f875af192505050801561121e57506040513d601f19601f8201168201806040525081019061121b9190611e8b565b60015b61129f573d805f811461124c576040519150601f19603f3d011682016040523d82523d5f602084013e611251565b606091505b505f81510361129757846040517f57f447ce00000000000000000000000000000000000000000000000000000000815260040161128e9190611cdc565b60405180910390fd5b805181602001fd5b63bc197c8160e01b7bffffffffffffffffffffffffffffffffffffffffffffffffffffffff1916817bffffffffffffffffffffffffffffffffffffffffffffffffffffffff19161461132857846040517f57f447ce00000000000000000000000000000000000000000000000000000000815260040161131f9190611cdc565b60405180910390fd5b505b505050505050565b5f604051905090565b5f5ffd5b5f5ffd5b5f73ffffffffffffffffffffffffffffffffffffffff82169050919050565b5f61136c82611343565b9050919050565b61137c81611362565b8114611386575f5ffd5b50565b5f8135905061139781611373565b92915050565b5f819050919050565b6113af8161139d565b81146113b9575f5ffd5b50565b5f813590506113ca816113a6565b92915050565b5f5f604083850312156113e6576113e561133b565b5b5f6113f385828601611389565b9250506020611404858286016113bc565b9150509250929050565b6114178161139d565b82525050565b5f6020820190506114305f83018461140e565b92915050565b5f7fffffffff0000000000000000000000000000000000000000000000000000000082169050919050565b61146a81611436565b8114611474575f5ffd5b50565b5f8135905061148581611461565b92915050565b5f602082840312156114a05761149f61133b565b5b5f6114ad84828501611477565b91505092915050565b5f8115159050919050565b6114ca816114b6565b82525050565b5f6020820190506114e35f8301846114c1565b92915050565b5f602082840312156114fe576114fd61133b565b5b5f61150b848285016113bc565b91505092915050565b5f81519050919050565b5f82825260208201905092915050565b8281835e5f83830152505050565b5f601f19601f8301169050919050565b5f61155682611514565b611560818561151e565b935061157081856020860161152e565b6115798161153c565b840191505092915050565b5f6020820190508181035f83015261159c818461154c565b905092915050565b5f5f5f606084860312156115bb576115ba61133b565b5b5f6115c886828701611389565b93505060206115d9868287016113bc565b92505060406115ea868287016113bc565b9150509250925092565b5f5ffd5b7f4e487b71000000000000000000000000000000000000000000000000000000005f52604160045260245ffd5b61162e8261153c565b810181811067ffffffffffffffff8211171561164d5761164c6115f8565b5b80604052505050565b5f61165f611332565b905061166b8282611625565b919050565b5f67ffffffffffffffff82111561168a576116896115f8565b5b602082029050602081019050919050565b5f5ffd5b5f6116b16116ac84611670565b611656565b905080838252602082019050602084028301858111156116d4576116d361169b565b5b835b818110156116fd57806116e988826113bc565b8452602084019350506020810190506116d6565b5050509392505050565b5f82601f83011261171b5761171a6115f4565b5b813561172b84826020860161169f565b91505092915050565b5f5ffd5b5f67ffffffffffffffff821115611752576117516115f8565b5b61175b8261153c565b9050602081019050919050565b828183375f83830152505050565b5f61178861178384611738565b611656565b9050828152602081018484840111156117a4576117a3611734565b5b6117af848285611768565b509392505050565b5f82601f8301126117cb576117ca6115f4565b5b81356117db848260208601611776565b91505092915050565b5f5f5f5f5f60a086880312156117fd576117fc61133b565b5b5f61180a88828901611389565b955050602061181b88828901611389565b945050604086013567ffffffffffffffff81111561183c5761183b61133f565b5b61184888828901611707565b935050606086013567ffffffffffffffff8111156118695761186861133f565b5b61187588828901611707565b925050608086013567ffffffffffffffff8111156118965761189561133f565b5b6118a2888289016117b7565b9150509295509295909350565b5f67ffffffffffffffff8211156118c9576118c86115f8565b5b602082029050602081019050919050565b5f6118ec6118e7846118af565b611656565b9050808382526020820190506020840283018581111561190f5761190e61169b565b5b835b8181101561193857806119248882611389565b845260208401935050602081019050611911565b5050509392505050565b5f82601f830112611956576119556115f4565b5b81356119668482602086016118da565b91505092915050565b5f5f604083850312156119855761198461133b565b5b5f83013567ffffffffffffffff8111156119a2576119a161133f565b5b6119ae85828601611942565b925050602083013567ffffffffffffffff8111156119cf576119ce61133f565b5b6119db85828601611707565b9150509250929050565b5f81519050919050565b5f82825260208201905092915050565b5f819050602082019050919050565b611a178161139d565b82525050565b5f611a288383611a0e565b60208301905092915050565b5f602082019050919050565b5f611a4a826119e5565b611a5481856119ef565b9350611a5f836119ff565b805f5b83811015611a8f578151611a768882611a1d565b9750611a8183611a34565b925050600181019050611a62565b5085935050505092915050565b5f6020820190508181035f830152611ab48184611a40565b905092915050565b611ac5816114b6565b8114611acf575f5ffd5b50565b5f81359050611ae081611abc565b92915050565b5f5f60408385031215611afc57611afb61133b565b5b5f611b0985828601611389565b9250506020611b1a85828601611ad2565b9150509250929050565b5f5f60408385031215611b3a57611b3961133b565b5b5f611b4785828601611389565b9250506020611b5885828601611389565b9150509250929050565b5f5f5f5f5f60a08688031215611b7b57611b7a61133b565b5b5f611b8888828901611389565b9550506020611b9988828901611389565b9450506040611baa888289016113bc565b9350506060611bbb888289016113bc565b925050608086013567ffffffffffffffff811115611bdc57611bdb61133f565b5b611be8888289016117b7565b9150509295509295909350565b7f4e487b71000000000000000000000000000000000000000000000000000000005f52602260045260245ffd5b5f6002820490506001821680611c3957607f821691505b602082108103611c4c57611c4b611bf5565b5b50919050565b611c5b81611362565b82525050565b5f604082019050611c745f830185611c52565b611c816020830184611c52565b9392505050565b5f604082019050611c9b5f83018561140e565b611ca8602083018461140e565b9392505050565b7f4e487b71000000000000000000000000000000000000000000000000000000005f52603260045260245ffd5b5f602082019050611cef5f830184611c52565b92915050565b5f608082019050611d085f830187611c52565b611d15602083018661140e565b611d22604083018561140e565b611d2f606083018461140e565b95945050505050565b7f4e487b71000000000000000000000000000000000000000000000000000000005f52601160045260245ffd5b5f611d6f8261139d565b9150611d7a8361139d565b9250828201905080821115611d9257611d91611d38565b5b92915050565b5f6040820190508181035f830152611db08185611a40565b90508181036020830152611dc48184611a40565b90509392505050565b5f81519050919050565b5f82825260208201905092915050565b5f611df182611dcd565b611dfb8185611dd7565b9350611e0b81856020860161152e565b611e148161153c565b840191505092915050565b5f60a082019050611e325f830188611c52565b611e3f6020830187611c52565b611e4c604083018661140e565b611e59606083018561140e565b8181036080830152611e6b8184611de7565b90509695505050505050565b5f81519050611e8581611461565b92915050565b5f60208284031215611ea057611e9f61133b565b5b5f611ead84828501611e77565b91505092915050565b5f60a082019050611ec95f830188611c52565b611ed66020830187611c52565b8181036040830152611ee88186611a40565b90508181036060830152611efc8185611a40565b90508181036080830152611f108184611de7565b9050969550505050505056fea2646970667358221220cce55825e83b597e77d67bfac550c9237ed3d925ea112d9ce79040ba98371cf264736f6c634300081e0033","linkReferences":{}},"methodIdentifiers":{"balanceOf(address,uint256)":"00fdd58e","balanceOfBatch(address[],uint256[])":"4e1273f4","isApprovedForAll(address,address)":"e985e9c5","mint(address,uint256,uint256)":"156e29f6","safeBatchTransferFrom(address,address,uint256[],uint256[],bytes)":"2eb2c2d6","safeTransferFrom(address,address,uint256,uint256,bytes)":"f242432a","setApprovalForAll(address,bool)":"a22cb465","supportsInterface(bytes4)":"01ffc9a7","uri(uint256)":"0e89341c"},"id":46}