{"abi":[{"type":"function","name":"consumers","inputs":[{"name":"","type":"uint256","internalType":"uint256"}],"outputs":[{"name":"","type":"address","internalType":"address"}],"stateMutability":"view"},{"type":"function","name":"fulfillRandomWords","inputs":[{"name":"requestId","type":"uint256","internalType":"uint256"},{"name":"consumer","type":"address","internalType":"address"},{"name":"randomWords","type":"uint256[]","internalType":"uint256[]"}],"outputs":[],"stateMutability":"nonpayable"},{"type":"function","name":"lastRequestId","inputs":[],"outputs":[{"name":"","type":"uint256","internalType":"uint256"}],"stateMutability":"view"},{"type":"function","name":"requestRandomWords","inputs":[{"name":"keyHash","type":"bytes32","internalType":"bytes32"},{"name":"subId","type":"uint256","internalType":"uint256"},{"name":"requestConfirmations","type":"uint16","internalType":"uint16"},{"name":"callbackGasLimit","type":"uint32","internalType":"uint32"},{"name":"numWords","type":"uint32","internalType":"uint32"},{"name":"extraArgs","type":"bytes","internalType":"bytes"}],"outputs":[{"name":"","type":"uint256","internalType":"uint256"}],"stateMutability":"nonpayable"}],"bytecode":{"object":"0x608060405260015f553480156012575f5ffd5b5061096c806100205f395ff3fe608060405234801561000f575f5ffd5b506004361061004a575f3560e01c80634651ed3d1461004e5780639ff308b01461007e578063ca7aefd2146100ae578063fc2a88c3146100ca575b5f5ffd5b610068600480360381019061006391906102c6565b6100e8565b6040516100759190610330565b60405180910390f35b6100986004803603810190610093919061044d565b610118565b6040516100a59190610506565b60405180910390f35b6100c860048036038101906100c39190610691565b610140565b005b6100d261027d565b6040516100df9190610506565b60405180910390f35b6001602052805f5260405f205f915054906101000a900473ffffffffffffffffffffffffffffffffffffffff1681565b5f5f5f5f81548092919061012b9061072a565b91905055905080915050979650505050505050565b5f8273ffffffffffffffffffffffffffffffffffffffff16848360405160240161016b929190610828565b6040516020818303038152906040527f38ba4614000000000000000000000000000000000000000000000000000000007bffffffffffffffffffffffffffffffffffffffffffffffffffffffff19166020820180517bffffffffffffffffffffffffffffffffffffffffffffffffffffffff83818316178352505050506040516101f591906108a8565b5f604051808303815f865af19150503d805f811461022e576040519150601f19603f3d011682016040523d82523d5f602084013e610233565b606091505b5050905080610277576040517f08c379a000000000000000000000000000000000000000000000000000000000815260040161026e90610918565b60405180910390fd5b50505050565b5f5481565b5f604051905090565b5f5ffd5b5f5ffd5b5f819050919050565b6102a581610293565b81146102af575f5ffd5b50565b5f813590506102c08161029c565b92915050565b5f602082840312156102db576102da61028b565b5b5f6102e8848285016102b2565b91505092915050565b5f73ffffffffffffffffffffffffffffffffffffffff82169050919050565b5f61031a826102f1565b9050919050565b61032a81610310565b82525050565b5f6020820190506103435f830184610321565b92915050565b5f819050919050565b61035b81610349565b8114610365575f5ffd5b50565b5f8135905061037681610352565b92915050565b5f61ffff82169050919050565b6103928161037c565b811461039c575f5ffd5b50565b5f813590506103ad81610389565b92915050565b5f63ffffffff82169050919050565b6103cb816103b3565b81146103d5575f5ffd5b50565b5f813590506103e6816103c2565b92915050565b5f5ffd5b5f5ffd5b5f5ffd5b5f5f83601f84011261040d5761040c6103ec565b5b8235905067ffffffffffffffff81111561042a576104296103f0565b5b602083019150836001820283011115610446576104456103f4565b5b9250929050565b5f5f5f5f5f5f5f60c0888a0312156104685761046761028b565b5b5f6104758a828b01610368565b97505060206104868a828b016102b2565b96505060406104978a828b0161039f565b95505060606104a88a828b016103d8565b94505060806104b98a828b016103d8565b93505060a088013567ffffffffffffffff8111156104da576104d961028f565b5b6104e68a828b016103f8565b925092505092959891949750929550565b61050081610293565b82525050565b5f6020820190506105195f8301846104f7565b92915050565b61052881610310565b8114610532575f5ffd5b50565b5f813590506105438161051f565b92915050565b5f601f19601f8301169050919050565b7f4e487b71000000000000000000000000000000000000000000000000000000005f52604160045260245ffd5b61058f82610549565b810181811067ffffffffffffffff821117156105ae576105ad610559565b5b80604052505050565b5f6105c0610282565b90506105cc8282610586565b919050565b5f67ffffffffffffffff8211156105eb576105ea610559565b5b602082029050602081019050919050565b5f61060e610609846105d1565b6105b7565b90508083825260208201905060208402830185811115610631576106306103f4565b5b835b8181101561065a578061064688826102b2565b845260208401935050602081019050610633565b5050509392505050565b5f82601f830112610678576106776103ec565b5b81356106888482602086016105fc565b91505092915050565b5f5f5f606084860312156106a8576106a761028b565b5b5f6106b5868287016102b2565b93505060206106c686828701610535565b925050604084013567ffffffffffffffff8111156106e7576106e661028f565b5b6106f386828701610664565b9150509250925092565b7f4e487b71000000000000000000000000000000000000000000000000000000005f52601160045260245ffd5b5f61073482610293565b91507fffffffffffffffffffffffffffffffffffffffffffffffffffffffffffffffff8203610766576107656106fd565b5b600182019050919050565b5f81519050919050565b5f82825260208201905092915050565b5f819050602082019050919050565b6107a381610293565b82525050565b5f6107b4838361079a565b60208301905092915050565b5f602082019050919050565b5f6107d682610771565b6107e0818561077b565b93506107eb8361078b565b805f5b8381101561081b57815161080288826107a9565b975061080d836107c0565b9250506001810190506107ee565b5085935050505092915050565b5f60408201905061083b5f8301856104f7565b818103602083015261084d81846107cc565b90509392505050565b5f81519050919050565b5f81905092915050565b8281835e5f83830152505050565b5f61088282610856565b61088c8185610860565b935061089c81856020860161086a565b80840191505092915050565b5f6108b38284610878565b915081905092915050565b5f82825260208201905092915050565b7f46756c66696c6c6d656e74206661696c656400000000000000000000000000005f82015250565b5f6109026012836108be565b915061090d826108ce565b602082019050919050565b5f6020820190508181035f83015261092f816108f6565b905091905056fea26469706673582212201a54e3850398fd3244c6463b386291c96b074ac3a07b0be90c708b466d8c9ccf64736f6c634300081e0033","linkReferences":{}},"methodIdentifiers":{"consumers(uint256)":"4651ed3d","fulfillRandomWords(uint256,address,uint256[])":"ca7aefd2","lastRequestId()":"fc2a88c3","requestRandomWords(bytes32,uint256,uint16,uint32,uint32,bytes)":"9ff308b0"},"id":49}