{
  "_format": "hh-sol-artifact-1",
  "contractName": "NFTWithRoles",
  "sourceName": "contracts/NFTWithRoles.sol",
  "abi": [
    {
      "inputs": [
        {
          "internalType": "string",
          "name": "name",
          "type": "string"
        },
        {
          "internalType": "string",
          "name": "symbol",
          "type": "string"
        }
      ],
      "stateMutability": "nonpayable",
      "type": "constructor"
    },
    {
      "inputs": [
        {
          "internalType": "address",
          "name": "sender",
          "type": "address"
        },
        {
          "internalType": "uint256",
          "name": "tokenId",
          "type": "uint256"
        },
        {
          "internalType": "address",
          "name": "owner",
          "type": "address"
        }
      ],
      "name": "ERC721IncorrectOwner",
      "type": "error"
    },
    {
      "inputs": [
        {
          "internalType": "address",
          "name": "operator",
          "type": "address"
        },
        {
          "internalType": "uint256",
          "name": "tokenId",
          "type": "uint256"
        }
      ],
      "name": "ERC721InsufficientApproval",
      "type": "error"
    },
    {
      "inputs": [
        {
          "internalType": "address",
          "name": "approver",
          "type": "address"
        }
      ],
      "name": "ERC721InvalidApprover",
      "type": "error"
    },
    {
      "inputs": [
        {
          "internalType": "address",
          "name": "operator",
          "type": "address"
        }
      ],
      "name": "ERC721InvalidOperator",
      "type": "error"
    },
    {
      "inputs": [
        {
          "internalType": "address",
          "name": "owner",
          "type": "address"
        }
      ],
      "name": "ERC721InvalidOwner",
      "type": "error"
    },
    {
      "inputs": [
        {
          "internalType": "address",
          "name": "receiver",
          "type": "address"
        }
      ],
      "name": "ERC721InvalidReceiver",
      "type": "error"
    },
    {
      "inputs": [
        {
          "internalType": "address",
          "name": "sender",
          "type": "address"
        }
      ],
      "name": "ERC721InvalidSender",
      "type": "error"
    },
    {
      "inputs": [
        {
          "internalType": "uint256",
          "name": "tokenId",
          "type": "uint256"
        }
      ],
      "name": "ERC721NonexistentToken",
      "type": "error"
    },
    {
      "inputs": [
        {
          "internalType": "address",
          "name": "owner",
          "type": "address"
        }
      ],
      "name": "OwnableInvalidOwner",
      "type": "error"
    },
    {
      "inputs": [
        {
          "internalType": "address",
          "name": "account",
          "type": "address"
        }
      ],
      "name": "OwnableUnauthorizedAccount",
      "type": "error"
    },
    {
      "anonymous": false,
      "inputs": [
        {
          "indexed": true,
          "internalType": "address",
          "name": "owner",
          "type": "address"
        },
        {
          "indexed": true,
          "internalType": "address",
          "name": "approved",
          "type": "address"
        },
        {
          "indexed": true,
          "internalType": "uint256",
          "name": "tokenId",
          "type": "uint256"
        }
      ],
      "name": "Approval",
      "type": "event"
    },
    {
      "anonymous": false,
      "inputs": [
        {
          "indexed": true,
          "internalType": "address",
          "name": "owner",
          "type": "address"
        },
        {
          "indexed": true,
          "internalType": "address",
          "name": "operator",
          "type": "address"
        },
        {
          "indexed": false,
          "internalType": "bool",
          "name": "approved",
          "type": "bool"
        }
      ],
      "name": "ApprovalForAll",
      "type": "event"
    },
    {
      "anonymous": false,
      "inputs": [
        {
          "indexed": true,
          "internalType": "address",
          "name": "previousOwner",
          "type": "address"
        },
        {
          "indexed": true,
          "internalType": "address",
          "name": "newOwner",
          "type": "address"
        }
      ],
      "name": "OwnershipTransferred",
      "type": "event"
    },
    {
      "anonymous": false,
      "inputs": [
        {
          "indexed": true,
          "internalType": "address",
          "name": "from",
          "type": "address"
        },
        {
          "indexed": true,
          "internalType": "address",
          "name": "to",
          "type": "address"
        },
        {
          "indexed": true,
          "internalType": "uint256",
          "name": "tokenId",
          "type": "uint256"
        }
      ],
      "name": "Transfer",
      "type": "event"
    },
    {
      "inputs": [],
      "name": "adminRole",
      "outputs": [
        {
          "internalType": "bytes32",
          "name": "",
          "type": "bytes32"
        }
      ],
      "stateMutability": "view",
      "type": "function"
    },
    {
      "inputs": [
        {
          "internalType": "address",
          "name": "to",
          "type": "address"
        },
        {
          "internalType": "uint256",
          "name": "tokenId",
          "type": "uint256"
        }
      ],
      "name": "approve",
      "outputs": [],
      "stateMutability": "nonpayable",
      "type": "function"
    },
    {
      "inputs": [
        {
          "internalType": "address",
          "name": "owner",
          "type": "address"
        }
      ],
      "name": "balanceOf",
      "outputs": [
        {
          "internalType": "uint256",
          "name": "",
          "type": "uint256"
        }
      ],
      "stateMutability": "view",
      "type": "function"
    },
    {
      "inputs": [
        {
          "internalType": "uint256",
          "name": "tokenId",
          "type": "uint256"
        }
      ],
      "name": "getApproved",
      "outputs": [
        {
          "internalType": "address",
          "name": "",
          "type": "address"
        }
      ],
      "stateMutability": "view",
      "type": "function"
    },
    {
      "inputs": [
        {
          "internalType": "address",
          "name": "user",
          "type": "address"
        }
      ],
      "name": "getUserTokenId",
      "outputs": [
        {
          "internalType": "uint256",
          "name": "",
          "type": "uint256"
        }
      ],
      "stateMutability": "view",
      "type": "function"
    },
    {
      "inputs": [
        {
          "internalType": "uint256",
          "name": "tokenId",
          "type": "uint256"
        },
        {
          "internalType": "bytes32",
          "name": "role",
          "type": "bytes32"
        },
        {
          "internalType": "uint64",
          "name": "expirationDate",
          "type": "uint64"
        }
      ],
      "name": "grantRole",
      "outputs": [],
      "stateMutability": "nonpayable",
      "type": "function"
    },
    {
      "inputs": [
        {
          "internalType": "uint256",
          "name": "tokenId",
          "type": "uint256"
        },
        {
          "internalType": "bytes32",
          "name": "role",
          "type": "bytes32"
        }
      ],
      "name": "hasRole",
      "outputs": [
        {
          "internalType": "bool",
          "name": "",
          "type": "bool"
        }
      ],
      "stateMutability": "view",
      "type": "function"
    },
    {
      "inputs": [
        {
          "internalType": "address",
          "name": "owner",
          "type": "address"
        },
        {
          "internalType": "address",
          "name": "operator",
          "type": "address"
        }
      ],
      "name": "isApprovedForAll",
      "outputs": [
        {
          "internalType": "bool",
          "name": "",
          "type": "bool"
        }
      ],
      "stateMutability": "view",
      "type": "function"
    },
    {
      "inputs": [
        {
          "internalType": "uint256",
          "name": "tokenId",
          "type": "uint256"
        },
        {
          "internalType": "bytes32",
          "name": "role",
          "type": "bytes32"
        }
      ],
      "name": "isRoleExpired",
      "outputs": [
        {
          "internalType": "bool",
          "name": "",
          "type": "bool"
        }
      ],
      "stateMutability": "view",
      "type": "function"
    },
    {
      "inputs": [],
      "name": "memberRole",
      "outputs": [
        {
          "internalType": "bytes32",
          "name": "",
          "type": "bytes32"
        }
      ],
      "stateMutability": "view",
      "type": "function"
    },
    {
      "inputs": [
        {
          "internalType": "address",
          "name": "to",
          "type": "address"
        }
      ],
      "name": "mint",
      "outputs": [
        {
          "internalType": "uint256",
          "name": "",
          "type": "uint256"
        }
      ],
      "stateMutability": "nonpayable",
      "type": "function"
    },
    {
      "inputs": [],
      "name": "name",
      "outputs": [
        {
          "internalType": "string",
          "name": "",
          "type": "string"
        }
      ],
      "stateMutability": "view",
      "type": "function"
    },
    {
      "inputs": [],
      "name": "owner",
      "outputs": [
        {
          "internalType": "address",
          "name": "",
          "type": "address"
        }
      ],
      "stateMutability": "view",
      "type": "function"
    },
    {
      "inputs": [
        {
          "internalType": "uint256",
          "name": "tokenId",
          "type": "uint256"
        }
      ],
      "name": "ownerOf",
      "outputs": [
        {
          "internalType": "address",
          "name": "",
          "type": "address"
        }
      ],
      "stateMutability": "view",
      "type": "function"
    },
    {
      "inputs": [],
      "name": "renounceOwnership",
      "outputs": [],
      "stateMutability": "nonpayable",
      "type": "function"
    },
    {
      "inputs": [
        {
          "internalType": "uint256",
          "name": "tokenId",
          "type": "uint256"
        },
        {
          "internalType": "bytes32",
          "name": "role",
          "type": "bytes32"
        }
      ],
      "name": "revokeRole",
      "outputs": [],
      "stateMutability": "nonpayable",
      "type": "function"
    },
    {
      "inputs": [
        {
          "internalType": "uint256",
          "name": "tokenId",
          "type": "uint256"
        },
        {
          "internalType": "bytes32",
          "name": "role",
          "type": "bytes32"
        }
      ],
      "name": "roleExpirationDate",
      "outputs": [
        {
          "internalType": "uint64",
          "name": "",
          "type": "uint64"
        }
      ],
      "stateMutability": "view",
      "type": "function"
    },
    {
      "inputs": [
        {
          "internalType": "address",
          "name": "from",
          "type": "address"
        },
        {
          "internalType": "address",
          "name": "to",
          "type": "address"
        },
        {
          "internalType": "uint256",
          "name": "tokenId",
          "type": "uint256"
        }
      ],
      "name": "safeTransferFrom",
      "outputs": [],
      "stateMutability": "nonpayable",
      "type": "function"
    },
    {
      "inputs": [
        {
          "internalType": "address",
          "name": "from",
          "type": "address"
        },
        {
          "internalType": "address",
          "name": "to",
          "type": "address"
        },
        {
          "internalType": "uint256",
          "name": "tokenId",
          "type": "uint256"
        },
        {
          "internalType": "bytes",
          "name": "data",
          "type": "bytes"
        }
      ],
      "name": "safeTransferFrom",
      "outputs": [],
      "stateMutability": "nonpayable",
      "type": "function"
    },
    {
      "inputs": [
        {
          "internalType": "address",
          "name": "operator",
          "type": "address"
        },
        {
          "internalType": "bool",
          "name": "approved",
          "type": "bool"
        }
      ],
      "name": "setApprovalForAll",
      "outputs": [],
      "stateMutability": "nonpayable",
      "type": "function"
    },
    {
      "inputs": [
        {
          "internalType": "bytes4",
          "name": "interfaceId",
          "type": "bytes4"
        }
      ],
      "name": "supportsInterface",
      "outputs": [
        {
          "internalType": "bool",
          "name": "",
          "type": "bool"
        }
      ],
      "stateMutability": "view",
      "type": "function"
    },
    {
      "inputs": [],
      "name": "symbol",
      "outputs": [
        {
          "internalType": "string",
          "name": "",
          "type": "string"
        }
      ],
      "stateMutability": "view",
      "type": "function"
    },
    {
      "inputs": [
        {
          "internalType": "uint256",
          "name": "tokenId",
          "type": "uint256"
        }
      ],
      "name": "tokenURI",
      "outputs": [
        {
          "internalType": "string",
          "name": "",
          "type": "string"
        }
      ],
      "stateMutability": "view",
      "type": "function"
    },
    {
      "inputs": [
        {
          "internalType": "address",
          "name": "from",
          "type": "address"
        },
        {
          "internalType": "address",
          "name": "to",
          "type": "address"
        },
        {
          "internalType": "uint256",
          "name": "tokenId",
          "type": "uint256"
        }
      ],
      "name": "transferFrom",
      "outputs": [],
      "stateMutability": "nonpayable",
      "type": "function"
    },
    {
      "inputs": [
        {
          "internalType": "address",
          "name": "newOwner",
          "type": "address"
        }
      ],
      "name": "transferOwnership",
      "outputs": [],
      "stateMutability": "nonpayable",
      "type": "function"
    },
    {
      "inputs": [
        {
          "internalType": "address",
          "name": "user",
          "type": "address"
        },
        {
          "internalType": "bytes32",
          "name": "role",
          "type": "bytes32"
        }
      ],
      "name": "userHasRole",
      "outputs": [
        {
          "internalType": "bool",
          "name": "",
          "type": "bool"
        }
      ],
      "stateMutability": "view",
      "type": "function"
    }
  ],
  "bytecode": "0x60806040527fffa60083152bd11704a80cc8c7a409dad8aa74288b454a3ba0e94c0abc7cf1686007557fdf8b4c520ffe197c5343c6f5aec59570151ef9a492f2c624fd45ddde6135ec4260085534801561005857600080fd5b50604051613345380380613345833981810160405281019061007a919061036b565b338282816000908161008c9190610604565b50806001908161009c9190610604565b505050600073ffffffffffffffffffffffffffffffffffffffff168173ffffffffffffffffffffffffffffffffffffffff16036101115760006040517f1e4fbdf70000000000000000000000000000000000000000000000000000000081526004016101089190610717565b60405180910390fd5b6101208161013060201b60201c565b506001600a819055505050610732565b6000600660009054906101000a900473ffffffffffffffffffffffffffffffffffffffff16905081600660006101000a81548173ffffffffffffffffffffffffffffffffffffffff021916908373ffffffffffffffffffffffffffffffffffffffff1602179055508173ffffffffffffffffffffffffffffffffffffffff168173ffffffffffffffffffffffffffffffffffffffff167f8be0079c531659141344cd1fd0a4f28419497f9722a3daafe3b4186f6b6457e060405160405180910390a35050565b6000604051905090565b600080fd5b600080fd5b600080fd5b600080fd5b6000601f19601f8301169050919050565b7f4e487b7100000000000000000000000000000000000000000000000000000000600052604160045260246000fd5b61025d82610214565b810181811067ffffffffffffffff8211171561027c5761027b610225565b5b80604052505050565b600061028f6101f6565b905061029b8282610254565b919050565b600067ffffffffffffffff8211156102bb576102ba610225565b5b6102c482610214565b9050602081019050919050565b60005b838110156102ef5780820151818401526020810190506102d4565b60008484015250505050565b600061030e610309846102a0565b610285565b90508281526020810184848401111561032a5761032961020f565b5b6103358482856102d1565b509392505050565b600082601f8301126103525761035161020a565b5b81516103628482602086016102fb565b91505092915050565b6000806040838503121561038257610381610200565b5b600083015167ffffffffffffffff8111156103a05761039f610205565b5b6103ac8582860161033d565b925050602083015167ffffffffffffffff8111156103cd576103cc610205565b5b6103d98582860161033d565b9150509250929050565b600081519050919050565b7f4e487b7100000000000000000000000000000000000000000000000000000000600052602260045260246000fd5b6000600282049050600182168061043557607f821691505b602082108103610448576104476103ee565b5b50919050565b60008190508160005260206000209050919050565b60006020601f8301049050919050565b600082821b905092915050565b6000600883026104b07fffffffffffffffffffffffffffffffffffffffffffffffffffffffffffffffff82610473565b6104ba8683610473565b95508019841693508086168417925050509392505050565b6000819050919050565b6000819050919050565b60006105016104fc6104f7846104d2565b6104dc565b6104d2565b9050919050565b6000819050919050565b61051b836104e6565b61052f61052782610508565b848454610480565b825550505050565b600090565b610544610537565b61054f818484610512565b505050565b5b818110156105735761056860008261053c565b600181019050610555565b5050565b601f8211156105b8576105898161044e565b61059284610463565b810160208510156105a1578190505b6105b56105ad85610463565b830182610554565b50505b505050565b600082821c905092915050565b60006105db600019846008026105bd565b1980831691505092915050565b60006105f483836105ca565b9150826002028217905092915050565b61060d826103e3565b67ffffffffffffffff81111561062657610625610225565b5b610630825461041d565b61063b828285610577565b600060209050601f83116001811461066e576000841561065c578287015190505b61066685826105e8565b8655506106ce565b601f19841661067c8661044e565b60005b828110156106a45784890151825560018201915060208501945060208101905061067f565b868310156106c157848901516106bd601f8916826105ca565b8355505b6001600288020188555050505b505050505050565b600073ffffffffffffffffffffffffffffffffffffffff82169050919050565b6000610701826106d6565b9050919050565b610711816106f6565b82525050565b600060208201905061072c6000830184610708565b92915050565b612c04806107416000396000f3fe608060405234801561001057600080fd5b506004361061018d5760003560e01c8063715018a6116100de578063c87b56dd11610097578063df707ff211610071578063df707ff2146104a6578063e985e9c5146104d6578063f2fde38b14610506578063fefd4e4f146105225761018d565b8063c87b56dd1461042a578063cb2dff8d1461045a578063d164a8721461048a5761018d565b8063715018a61461037c578063729cad81146103865780638da5cb5b146103b657806395d89b41146103d4578063a22cb465146103f2578063b88d4fde1461040e5761018d565b806323b872dd1161014b5780635ce63e80116101255780635ce63e80146102ce5780636352211e146102ec5780636a6278421461031c57806370a082311461034c5761018d565b806323b872dd1461026657806342842e0e14610282578063546a702c1461029e5761018d565b80629f2f3c1461019257806301ffc9a7146101b057806306fdde03146101e0578063081812fc146101fe578063095ea7b31461022e57806311745a9b1461024a575b600080fd5b61019a610552565b6040516101a791906120a3565b60405180910390f35b6101ca60048036038101906101c5919061212a565b610558565b6040516101d79190612172565b60405180910390f35b6101e861063a565b6040516101f5919061221d565b60405180910390f35b61021860048036038101906102139190612275565b6106cc565b60405161022591906122e3565b60405180910390f35b6102486004803603810190610243919061232a565b6106e8565b005b610264600480360381019061025f91906123d6565b6106fe565b005b610280600480360381019061027b9190612429565b6108b6565b005b61029c60048036038101906102979190612429565b6109b8565b005b6102b860048036038101906102b3919061247c565b6109d8565b6040516102c59190612172565b60405180910390f35b6102d6610a88565b6040516102e391906120a3565b60405180910390f35b61030660048036038101906103019190612275565b610a8e565b60405161031391906122e3565b60405180910390f35b610336600480360381019061033191906124bc565b610aa0565b60405161034391906124f8565b60405180910390f35b610366600480360381019061036191906124bc565b610adc565b60405161037391906124f8565b60405180910390f35b610384610b96565b005b6103a0600480360381019061039b9190612513565b610baa565b6040516103ad9190612172565b60405180910390f35b6103be610cb7565b6040516103cb91906122e3565b60405180910390f35b6103dc610ce1565b6040516103e9919061221d565b60405180910390f35b61040c6004803603810190610407919061257f565b610d73565b005b610428600480360381019061042391906126f4565b610d89565b005b610444600480360381019061043f9190612275565b610dae565b604051610451919061221d565b60405180910390f35b610474600480360381019061046f919061247c565b610e17565b6040516104819190612172565b60405180910390f35b6104a4600480360381019061049f919061247c565b610ebf565b005b6104c060048036038101906104bb919061247c565b610f98565b6040516104cd9190612786565b60405180910390f35b6104f060048036038101906104eb91906127a1565b611038565b6040516104fd9190612172565b60405180910390f35b610520600480360381019061051b91906124bc565b6110cc565b005b61053c600480360381019061053791906124bc565b611152565b60405161054991906124f8565b60405180910390f35b60085481565b60007f80ac58cd000000000000000000000000000000000000000000000000000000007bffffffffffffffffffffffffffffffffffffffffffffffffffffffff1916827bffffffffffffffffffffffffffffffffffffffffffffffffffffffff1916148061062357507f5b5e139f000000000000000000000000000000000000000000000000000000007bffffffffffffffffffffffffffffffffffffffffffffffffffffffff1916827bffffffffffffffffffffffffffffffffffffffffffffffffffffffff1916145b806106335750610632826111c0565b5b9050919050565b60606000805461064990612810565b80601f016020809104026020016040519081016040528092919081815260200182805461067590612810565b80156106c25780601f10610697576101008083540402835291602001916106c2565b820191906000526020600020905b8154815290600101906020018083116106a557829003601f168201915b5050505050905090565b60006106d78261122a565b506106e1826112b2565b9050919050565b6106fa82826106f56112ef565b6112f7565b5050565b610706611309565b600073ffffffffffffffffffffffffffffffffffffffff1661072784611390565b73ffffffffffffffffffffffffffffffffffffffff160361077d576040517f08c379a00000000000000000000000000000000000000000000000000000000081526004016107749061288d565b60405180910390fd5b428167ffffffffffffffff16116107c9576040517f08c379a00000000000000000000000000000000000000000000000000000000081526004016107c0906128f9565b60405180910390fd5b6007548214806107da575060085482145b610819576040517f08c379a000000000000000000000000000000000000000000000000000000000815260040161081090612965565b60405180910390fd5b60405180604001604052806001151581526020018267ffffffffffffffff1681525060096000858152602001908152602001600020600084815260200190815260200160002060008201518160000160006101000a81548160ff02191690831515021790555060208201518160000160016101000a81548167ffffffffffffffff021916908367ffffffffffffffff160217905550905050505050565b600073ffffffffffffffffffffffffffffffffffffffff168273ffffffffffffffffffffffffffffffffffffffff16036109285760006040517f64a0ae9200000000000000000000000000000000000000000000000000000000815260040161091f91906122e3565b60405180910390fd5b600061093c83836109376112ef565b6113cd565b90508373ffffffffffffffffffffffffffffffffffffffff168173ffffffffffffffffffffffffffffffffffffffff16146109b2578382826040517f64283d7b0000000000000000000000000000000000000000000000000000000081526004016109a993929190612985565b60405180910390fd5b50505050565b6109d383838360405180602001604052806000815250610d89565b505050565b6000806009600085815260200190815260200160002060008481526020019081526020016000206040518060400160405290816000820160009054906101000a900460ff161515151581526020016000820160019054906101000a900467ffffffffffffffff1667ffffffffffffffff1667ffffffffffffffff168152505090508060000151610a6c576000915050610a82565b806020015167ffffffffffffffff164210159150505b92915050565b60075481565b6000610a998261122a565b9050919050565b6000610aaa611309565b6000600a549050600a6000815480929190610ac4906129eb565b9190505550610ad383826115e7565b80915050919050565b60008073ffffffffffffffffffffffffffffffffffffffff168273ffffffffffffffffffffffffffffffffffffffff1603610b4f5760006040517f89c62b64000000000000000000000000000000000000000000000000000000008152600401610b4691906122e3565b60405180910390fd5b600360008373ffffffffffffffffffffffffffffffffffffffff1673ffffffffffffffffffffffffffffffffffffffff168152602001908152602001600020549050919050565b610b9e611309565b610ba86000611605565b565b600080600190505b600a54811015610cab578373ffffffffffffffffffffffffffffffffffffffff16610bdc82611390565b73ffffffffffffffffffffffffffffffffffffffff1603610c9e5760006009600083815260200190815260200160002060008581526020019081526020016000206040518060400160405290816000820160009054906101000a900460ff161515151581526020016000820160019054906101000a900467ffffffffffffffff1667ffffffffffffffff1667ffffffffffffffff1681525050905080600001518015610c955750806020015167ffffffffffffffff1642105b92505050610cb1565b8080600101915050610bb2565b50600090505b92915050565b6000600660009054906101000a900473ffffffffffffffffffffffffffffffffffffffff16905090565b606060018054610cf090612810565b80601f0160208091040260200160405190810160405280929190818152602001828054610d1c90612810565b8015610d695780601f10610d3e57610100808354040283529160200191610d69565b820191906000526020600020905b815481529060010190602001808311610d4c57829003601f168201915b5050505050905090565b610d85610d7e6112ef565b83836116cb565b5050565b610d948484846108b6565b610da8610d9f6112ef565b8585858561183a565b50505050565b6060610db98261122a565b506000610dc46119eb565b90506000815111610de45760405180602001604052806000815250610e0f565b80610dee84611a02565b604051602001610dff929190612a6f565b6040516020818303038152906040525b915050919050565b6000806009600085815260200190815260200160002060008481526020019081526020016000206040518060400160405290816000820160009054906101000a900460ff161515151581526020016000820160019054906101000a900467ffffffffffffffff1667ffffffffffffffff1667ffffffffffffffff1681525050905080600001518015610eb65750806020015167ffffffffffffffff1642105b91505092915050565b610ec7611309565b600073ffffffffffffffffffffffffffffffffffffffff16610ee883611390565b73ffffffffffffffffffffffffffffffffffffffff1603610f3e576040517f08c379a0000000000000000000000000000000000000000000000000000000008152600401610f359061288d565b60405180910390fd5b600960008381526020019081526020016000206000828152602001908152602001600020600080820160006101000a81549060ff02191690556000820160016101000a81549067ffffffffffffffff021916905550505050565b6000806009600085815260200190815260200160002060008481526020019081526020016000206040518060400160405290816000820160009054906101000a900460ff161515151581526020016000820160019054906101000a900467ffffffffffffffff1667ffffffffffffffff1667ffffffffffffffff16815250509050806000015161102957600061102f565b80602001515b91505092915050565b6000600560008473ffffffffffffffffffffffffffffffffffffffff1673ffffffffffffffffffffffffffffffffffffffff16815260200190815260200160002060008373ffffffffffffffffffffffffffffffffffffffff1673ffffffffffffffffffffffffffffffffffffffff16815260200190815260200160002060009054906101000a900460ff16905092915050565b6110d4611309565b600073ffffffffffffffffffffffffffffffffffffffff168173ffffffffffffffffffffffffffffffffffffffff16036111465760006040517f1e4fbdf700000000000000000000000000000000000000000000000000000000815260040161113d91906122e3565b60405180910390fd5b61114f81611605565b50565b600080600190505b600a548110156111b5578273ffffffffffffffffffffffffffffffffffffffff1661118482611390565b73ffffffffffffffffffffffffffffffffffffffff16036111a857809150506111bb565b808060010191505061115a565b50600090505b919050565b60007f01ffc9a7000000000000000000000000000000000000000000000000000000007bffffffffffffffffffffffffffffffffffffffffffffffffffffffff1916827bffffffffffffffffffffffffffffffffffffffffffffffffffffffff1916149050919050565b60008061123683611390565b9050600073ffffffffffffffffffffffffffffffffffffffff168173ffffffffffffffffffffffffffffffffffffffff16036112a957826040517f7e2732890000000000000000000000000000000000000000000000000000000081526004016112a091906124f8565b60405180910390fd5b80915050919050565b60006004600083815260200190815260200160002060009054906101000a900473ffffffffffffffffffffffffffffffffffffffff169050919050565b600033905090565b6113048383836001611ad0565b505050565b6113116112ef565b73ffffffffffffffffffffffffffffffffffffffff1661132f610cb7565b73ffffffffffffffffffffffffffffffffffffffff161461138e576113526112ef565b6040517f118cdaa700000000000000000000000000000000000000000000000000000000815260040161138591906122e3565b60405180910390fd5b565b60006002600083815260200190815260200160002060009054906101000a900473ffffffffffffffffffffffffffffffffffffffff169050919050565b6000806113d984611390565b9050600073ffffffffffffffffffffffffffffffffffffffff168373ffffffffffffffffffffffffffffffffffffffff161461141b5761141a818486611c95565b5b600073ffffffffffffffffffffffffffffffffffffffff168173ffffffffffffffffffffffffffffffffffffffff16146114ac5761145d600085600080611ad0565b6001600360008373ffffffffffffffffffffffffffffffffffffffff1673ffffffffffffffffffffffffffffffffffffffff168152602001908152602001600020600082825403925050819055505b600073ffffffffffffffffffffffffffffffffffffffff168573ffffffffffffffffffffffffffffffffffffffff161461152f576001600360008773ffffffffffffffffffffffffffffffffffffffff1673ffffffffffffffffffffffffffffffffffffffff168152602001908152602001600020600082825401925050819055505b846002600086815260200190815260200160002060006101000a81548173ffffffffffffffffffffffffffffffffffffffff021916908373ffffffffffffffffffffffffffffffffffffffff160217905550838573ffffffffffffffffffffffffffffffffffffffff168273ffffffffffffffffffffffffffffffffffffffff167fddf252ad1be2c89b69c2b068fc378daa952ba7f163c4a11628f55a4df523b3ef60405160405180910390a4809150509392505050565b611601828260405180602001604052806000815250611d59565b5050565b6000600660009054906101000a900473ffffffffffffffffffffffffffffffffffffffff16905081600660006101000a81548173ffffffffffffffffffffffffffffffffffffffff021916908373ffffffffffffffffffffffffffffffffffffffff1602179055508173ffffffffffffffffffffffffffffffffffffffff168173ffffffffffffffffffffffffffffffffffffffff167f8be0079c531659141344cd1fd0a4f28419497f9722a3daafe3b4186f6b6457e060405160405180910390a35050565b600073ffffffffffffffffffffffffffffffffffffffff168273ffffffffffffffffffffffffffffffffffffffff160361173c57816040517f5b08ba1800000000000000000000000000000000000000000000000000000000815260040161173391906122e3565b60405180910390fd5b80600560008573ffffffffffffffffffffffffffffffffffffffff1673ffffffffffffffffffffffffffffffffffffffff16815260200190815260200160002060008473ffffffffffffffffffffffffffffffffffffffff1673ffffffffffffffffffffffffffffffffffffffff16815260200190815260200160002060006101000a81548160ff0219169083151502179055508173ffffffffffffffffffffffffffffffffffffffff168373ffffffffffffffffffffffffffffffffffffffff167f17307eab39ab6107e8899845ad3d59bd9653f200f220920489ca2b5937696c318360405161182d9190612172565b60405180910390a3505050565b60008373ffffffffffffffffffffffffffffffffffffffff163b11156119e4578273ffffffffffffffffffffffffffffffffffffffff1663150b7a02868685856040518563ffffffff1660e01b81526004016118999493929190612ae8565b6020604051808303816000875af19250505080156118d557506040513d601f19601f820116820180604052508101906118d29190612b49565b60015b611959573d8060008114611905576040519150601f19603f3d011682016040523d82523d6000602084013e61190a565b606091505b50600081510361195157836040517f64a0ae9200000000000000000000000000000000000000000000000000000000815260040161194891906122e3565b60405180910390fd5b805160208201fd5b63150b7a0260e01b7bffffffffffffffffffffffffffffffffffffffffffffffffffffffff1916817bffffffffffffffffffffffffffffffffffffffffffffffffffffffff1916146119e257836040517f64a0ae920000000000000000000000000000000000000000000000000000000081526004016119d991906122e3565b60405180910390fd5b505b5050505050565b606060405180602001604052806000815250905090565b606060006001611a1184611d7d565b01905060008167ffffffffffffffff811115611a3057611a2f6125c9565b5b6040519080825280601f01601f191660200182016040528015611a625781602001600182028036833780820191505090505b509050600082602083010190505b600115611ac5578080600190039150507f3031323334353637383961626364656600000000000000000000000000000000600a86061a8153600a8581611ab957611ab8612b76565b5b04945060008503611a70575b819350505050919050565b8080611b095750600073ffffffffffffffffffffffffffffffffffffffff168273ffffffffffffffffffffffffffffffffffffffff1614155b15611c3d576000611b198461122a565b9050600073ffffffffffffffffffffffffffffffffffffffff168373ffffffffffffffffffffffffffffffffffffffff1614158015611b8457508273ffffffffffffffffffffffffffffffffffffffff168173ffffffffffffffffffffffffffffffffffffffff1614155b8015611b975750611b958184611038565b155b15611bd957826040517fa9fbf51f000000000000000000000000000000000000000000000000000000008152600401611bd091906122e3565b60405180910390fd5b8115611c3b57838573ffffffffffffffffffffffffffffffffffffffff168273ffffffffffffffffffffffffffffffffffffffff167f8c5be1e5ebec7d5bd14f71427d1e84f3dd0314c0f7b2291e5b200ac8c7c3b92560405160405180910390a45b505b836004600085815260200190815260200160002060006101000a81548173ffffffffffffffffffffffffffffffffffffffff021916908373ffffffffffffffffffffffffffffffffffffffff16021790555050505050565b611ca0838383611ed0565b611d5457600073ffffffffffffffffffffffffffffffffffffffff168373ffffffffffffffffffffffffffffffffffffffff1603611d1557806040517f7e273289000000000000000000000000000000000000000000000000000000008152600401611d0c91906124f8565b60405180910390fd5b81816040517f177e802f000000000000000000000000000000000000000000000000000000008152600401611d4b929190612ba5565b60405180910390fd5b505050565b611d638383611f91565b611d78611d6e6112ef565b600085858561183a565b505050565b600080600090507a184f03e93ff9f4daa797ed6e38ed64bf6a1f0100000000000000008310611ddb577a184f03e93ff9f4daa797ed6e38ed64bf6a1f0100000000000000008381611dd157611dd0612b76565b5b0492506040810190505b6d04ee2d6d415b85acef81000000008310611e18576d04ee2d6d415b85acef81000000008381611e0e57611e0d612b76565b5b0492506020810190505b662386f26fc100008310611e4757662386f26fc100008381611e3d57611e3c612b76565b5b0492506010810190505b6305f5e1008310611e70576305f5e1008381611e6657611e65612b76565b5b0492506008810190505b6127108310611e95576127108381611e8b57611e8a612b76565b5b0492506004810190505b60648310611eb85760648381611eae57611ead612b76565b5b0492506002810190505b600a8310611ec7576001810190505b80915050919050565b60008073ffffffffffffffffffffffffffffffffffffffff168373ffffffffffffffffffffffffffffffffffffffff1614158015611f8857508273ffffffffffffffffffffffffffffffffffffffff168473ffffffffffffffffffffffffffffffffffffffff161480611f495750611f488484611038565b5b80611f8757508273ffffffffffffffffffffffffffffffffffffffff16611f6f836112b2565b73ffffffffffffffffffffffffffffffffffffffff16145b5b90509392505050565b600073ffffffffffffffffffffffffffffffffffffffff168273ffffffffffffffffffffffffffffffffffffffff16036120035760006040517f64a0ae92000000000000000000000000000000000000000000000000000000008152600401611ffa91906122e3565b60405180910390fd5b6000612011838360006113cd565b9050600073ffffffffffffffffffffffffffffffffffffffff168173ffffffffffffffffffffffffffffffffffffffff16146120855760006040517f73c6ac6e00000000000000000000000000000000000000000000000000000000815260040161207c91906122e3565b60405180910390fd5b505050565b6000819050919050565b61209d8161208a565b82525050565b60006020820190506120b86000830184612094565b92915050565b6000604051905090565b600080fd5b600080fd5b60007fffffffff0000000000000000000000000000000000000000000000000000000082169050919050565b612107816120d2565b811461211257600080fd5b50565b600081359050612124816120fe565b92915050565b6000602082840312156121405761213f6120c8565b5b600061214e84828501612115565b91505092915050565b60008115159050919050565b61216c81612157565b82525050565b60006020820190506121876000830184612163565b92915050565b600081519050919050565b600082825260208201905092915050565b60005b838110156121c75780820151818401526020810190506121ac565b60008484015250505050565b6000601f19601f8301169050919050565b60006121ef8261218d565b6121f98185612198565b93506122098185602086016121a9565b612212816121d3565b840191505092915050565b6000602082019050818103600083015261223781846121e4565b905092915050565b6000819050919050565b6122528161223f565b811461225d57600080fd5b50565b60008135905061226f81612249565b92915050565b60006020828403121561228b5761228a6120c8565b5b600061229984828501612260565b91505092915050565b600073ffffffffffffffffffffffffffffffffffffffff82169050919050565b60006122cd826122a2565b9050919050565b6122dd816122c2565b82525050565b60006020820190506122f860008301846122d4565b92915050565b612307816122c2565b811461231257600080fd5b50565b600081359050612324816122fe565b92915050565b60008060408385031215612341576123406120c8565b5b600061234f85828601612315565b925050602061236085828601612260565b9150509250929050565b6123738161208a565b811461237e57600080fd5b50565b6000813590506123908161236a565b92915050565b600067ffffffffffffffff82169050919050565b6123b381612396565b81146123be57600080fd5b50565b6000813590506123d0816123aa565b92915050565b6000806000606084860312156123ef576123ee6120c8565b5b60006123fd86828701612260565b935050602061240e86828701612381565b925050604061241f868287016123c1565b9150509250925092565b600080600060608486031215612442576124416120c8565b5b600061245086828701612315565b935050602061246186828701612315565b925050604061247286828701612260565b9150509250925092565b60008060408385031215612493576124926120c8565b5b60006124a185828601612260565b92505060206124b285828601612381565b9150509250929050565b6000602082840312156124d2576124d16120c8565b5b60006124e084828501612315565b91505092915050565b6124f28161223f565b82525050565b600060208201905061250d60008301846124e9565b92915050565b6000806040838503121561252a576125296120c8565b5b600061253885828601612315565b925050602061254985828601612381565b9150509250929050565b61255c81612157565b811461256757600080fd5b50565b60008135905061257981612553565b92915050565b60008060408385031215612596576125956120c8565b5b60006125a485828601612315565b92505060206125b58582860161256a565b9150509250929050565b600080fd5b600080fd5b7f4e487b7100000000000000000000000000000000000000000000000000000000600052604160045260246000fd5b612601826121d3565b810181811067ffffffffffffffff821117156126205761261f6125c9565b5b80604052505050565b60006126336120be565b905061263f82826125f8565b919050565b600067ffffffffffffffff82111561265f5761265e6125c9565b5b612668826121d3565b9050602081019050919050565b82818337600083830152505050565b600061269761269284612644565b612629565b9050828152602081018484840111156126b3576126b26125c4565b5b6126be848285612675565b509392505050565b600082601f8301126126db576126da6125bf565b5b81356126eb848260208601612684565b91505092915050565b6000806000806080858703121561270e5761270d6120c8565b5b600061271c87828801612315565b945050602061272d87828801612315565b935050604061273e87828801612260565b925050606085013567ffffffffffffffff81111561275f5761275e6120cd565b5b61276b878288016126c6565b91505092959194509250565b61278081612396565b82525050565b600060208201905061279b6000830184612777565b92915050565b600080604083850312156127b8576127b76120c8565b5b60006127c685828601612315565b92505060206127d785828601612315565b9150509250929050565b7f4e487b7100000000000000000000000000000000000000000000000000000000600052602260045260246000fd5b6000600282049050600182168061282857607f821691505b60208210810361283b5761283a6127e1565b5b50919050565b7f546f6b656e20646f6573206e6f74206578697374000000000000000000000000600082015250565b6000612877601483612198565b915061288282612841565b602082019050919050565b600060208201905081810360008301526128a68161286a565b9050919050565b7f45787069726174696f6e206d75737420626520696e2066757475726500000000600082015250565b60006128e3601c83612198565b91506128ee826128ad565b602082019050919050565b60006020820190508181036000830152612912816128d6565b9050919050565b7f496e76616c696420726f6c650000000000000000000000000000000000000000600082015250565b600061294f600c83612198565b915061295a82612919565b602082019050919050565b6000602082019050818103600083015261297e81612942565b9050919050565b600060608201905061299a60008301866122d4565b6129a760208301856124e9565b6129b460408301846122d4565b949350505050565b7f4e487b7100000000000000000000000000000000000000000000000000000000600052601160045260246000fd5b60006129f68261223f565b91507fffffffffffffffffffffffffffffffffffffffffffffffffffffffffffffffff8203612a2857612a276129bc565b5b600182019050919050565b600081905092915050565b6000612a498261218d565b612a538185612a33565b9350612a638185602086016121a9565b80840191505092915050565b6000612a7b8285612a3e565b9150612a878284612a3e565b91508190509392505050565b600081519050919050565b600082825260208201905092915050565b6000612aba82612a93565b612ac48185612a9e565b9350612ad48185602086016121a9565b612add816121d3565b840191505092915050565b6000608082019050612afd60008301876122d4565b612b0a60208301866122d4565b612b1760408301856124e9565b8181036060830152612b298184612aaf565b905095945050505050565b600081519050612b43816120fe565b92915050565b600060208284031215612b5f57612b5e6120c8565b5b6000612b6d84828501612b34565b91505092915050565b7f4e487b7100000000000000000000000000000000000000000000000000000000600052601260045260246000fd5b6000604082019050612bba60008301856122d4565b612bc760208301846124e9565b939250505056fea264697066735822122088dec48e55c8ed4eb2a2d927edfe1f28048c268e6f5ceb485abf9fc1499a9c4a64736f6c634300081c0033",
  "linkReferences": {},
  "deployedLinkReferences": {}
}