{
  "_format": "hh-sol-artifact-1",
  "contractName": "TokenGatedDAO",
  "sourceName": "contracts/TokenGatedDao.sol",
  "abi": [
    {
      "inputs": [
        {
          "internalType": "address",
          "name": "_nftContract",
          "type": "address"
        }
      ],
      "stateMutability": "nonpayable",
      "type": "constructor"
    },
    {
      "inputs": [
        {
          "internalType": "address",
          "name": "user",
          "type": "address"
        }
      ],
      "name": "canCreateProposal",
      "outputs": [
        {
          "internalType": "bool",
          "name": "",
          "type": "bool"
        }
      ],
      "stateMutability": "view",
      "type": "function"
    },
    {
      "inputs": [
        {
          "internalType": "address",
          "name": "user",
          "type": "address"
        }
      ],
      "name": "canVote",
      "outputs": [
        {
          "internalType": "bool",
          "name": "",
          "type": "bool"
        }
      ],
      "stateMutability": "view",
      "type": "function"
    },
    {
      "inputs": [
        {
          "internalType": "string",
          "name": "description",
          "type": "string"
        }
      ],
      "name": "createProposal",
      "outputs": [
        {
          "internalType": "uint256",
          "name": "",
          "type": "uint256"
        }
      ],
      "stateMutability": "nonpayable",
      "type": "function"
    },
    {
      "inputs": [
        {
          "internalType": "uint256",
          "name": "proposalId",
          "type": "uint256"
        }
      ],
      "name": "getProposal",
      "outputs": [
        {
          "internalType": "uint256",
          "name": "id",
          "type": "uint256"
        },
        {
          "internalType": "address",
          "name": "creator",
          "type": "address"
        },
        {
          "internalType": "string",
          "name": "description",
          "type": "string"
        },
        {
          "internalType": "uint256",
          "name": "yesVotes",
          "type": "uint256"
        },
        {
          "internalType": "uint256",
          "name": "noVotes",
          "type": "uint256"
        },
        {
          "internalType": "uint256",
          "name": "endTime",
          "type": "uint256"
        },
        {
          "internalType": "bool",
          "name": "executed",
          "type": "bool"
        }
      ],
      "stateMutability": "view",
      "type": "function"
    },
    {
      "inputs": [],
      "name": "getProposalCount",
      "outputs": [
        {
          "internalType": "uint256",
          "name": "",
          "type": "uint256"
        }
      ],
      "stateMutability": "view",
      "type": "function"
    },
    {
      "inputs": [
        {
          "internalType": "uint256",
          "name": "proposalId",
          "type": "uint256"
        }
      ],
      "name": "hasProposalPassed",
      "outputs": [
        {
          "internalType": "bool",
          "name": "",
          "type": "bool"
        }
      ],
      "stateMutability": "view",
      "type": "function"
    },
    {
      "inputs": [
        {
          "internalType": "uint256",
          "name": "",
          "type": "uint256"
        },
        {
          "internalType": "uint256",
          "name": "",
          "type": "uint256"
        }
      ],
      "name": "hasVoted",
      "outputs": [
        {
          "internalType": "bool",
          "name": "",
          "type": "bool"
        }
      ],
      "stateMutability": "view",
      "type": "function"
    },
    {
      "inputs": [
        {
          "internalType": "uint256",
          "name": "proposalId",
          "type": "uint256"
        }
      ],
      "name": "isVotingActive",
      "outputs": [
        {
          "internalType": "bool",
          "name": "",
          "type": "bool"
        }
      ],
      "stateMutability": "view",
      "type": "function"
    },
    {
      "inputs": [],
      "name": "nftContract",
      "outputs": [
        {
          "internalType": "contract NFTWithRoles",
          "name": "",
          "type": "address"
        }
      ],
      "stateMutability": "view",
      "type": "function"
    },
    {
      "inputs": [
        {
          "internalType": "uint256",
          "name": "",
          "type": "uint256"
        }
      ],
      "name": "proposals",
      "outputs": [
        {
          "internalType": "uint256",
          "name": "id",
          "type": "uint256"
        },
        {
          "internalType": "address",
          "name": "creator",
          "type": "address"
        },
        {
          "internalType": "string",
          "name": "description",
          "type": "string"
        },
        {
          "internalType": "uint256",
          "name": "yesVotes",
          "type": "uint256"
        },
        {
          "internalType": "uint256",
          "name": "noVotes",
          "type": "uint256"
        },
        {
          "internalType": "uint256",
          "name": "endTime",
          "type": "uint256"
        },
        {
          "internalType": "bool",
          "name": "executed",
          "type": "bool"
        }
      ],
      "stateMutability": "view",
      "type": "function"
    },
    {
      "inputs": [
        {
          "internalType": "uint256",
          "name": "proposalId",
          "type": "uint256"
        },
        {
          "internalType": "bool",
          "name": "support",
          "type": "bool"
        }
      ],
      "name": "vote",
      "outputs": [],
      "stateMutability": "nonpayable",
      "type": "function"
    },
    {
      "inputs": [],
      "name": "votingPeriod",
      "outputs": [
        {
          "internalType": "uint256",
          "name": "",
          "type": "uint256"
        }
      ],
      "stateMutability": "view",
      "type": "function"
    }
  ],
  "bytecode": "0x608060405262093a8060045534801561001757600080fd5b506040516123be3803806123be83398181016040528101906100399190610158565b600073ffffffffffffffffffffffffffffffffffffffff168173ffffffffffffffffffffffffffffffffffffffff16036100a8576040517f08c379a000000000000000000000000000000000000000000000000000000000815260040161009f906101e2565b60405180910390fd5b806000806101000a81548173ffffffffffffffffffffffffffffffffffffffff021916908373ffffffffffffffffffffffffffffffffffffffff1602179055506001808190555050610202565b600080fd5b600073ffffffffffffffffffffffffffffffffffffffff82169050919050565b6000610125826100fa565b9050919050565b6101358161011a565b811461014057600080fd5b50565b6000815190506101528161012c565b92915050565b60006020828403121561016e5761016d6100f5565b5b600061017c84828501610143565b91505092915050565b600082825260208201905092915050565b7f496e76616c6964204e465420636f6e7472616374000000000000000000000000600082015250565b60006101cc601483610185565b91506101d782610196565b602082019050919050565b600060208201905081810360008301526101fb816101bf565b9050919050565b6121ad806102116000396000f3fe608060405234801561001057600080fd5b50600436106100b45760003560e01c8063772744b511610071578063772744b5146101cd578063adfaa72e146101fd578063c08cc02d1461022d578063c7f758a81461024b578063c9d27afe14610281578063d56d229d1461029d576100b4565b8063013cf08b146100b957806302a251a3146100ef57806349c2a1a61461010d5780636414b6a11461013d57806364390ff11461016d57806373098faf1461019d575b600080fd5b6100d360048036038101906100ce9190611459565b6102bb565b6040516100e69796959493929190611581565b60405180910390f35b6100f76103b2565b60405161010491906115f7565b60405180910390f35b61012760048036038101906101229190611747565b6103b8565b60405161013491906115f7565b60405180910390f35b61015760048036038101906101529190611459565b6106a5565b6040516101649190611790565b60405180910390f35b610187600480360381019061018291906117ab565b61089d565b6040516101949190611790565b60405180910390f35b6101b760048036038101906101b29190611817565b6108cc565b6040516101c49190611790565b60405180910390f35b6101e760048036038101906101e29190611459565b6109ff565b6040516101f49190611790565b60405180910390f35b61021760048036038101906102129190611817565b610a70565b6040516102249190611790565b60405180910390f35b610235610cd4565b60405161024291906115f7565b60405180910390f35b61026560048036038101906102609190611459565b610ce9565b6040516102789796959493929190611581565b60405180910390f35b61029b60048036038101906102969190611870565b610ece565b005b6102a56113eb565b6040516102b2919061190f565b60405180910390f35b60026020528060005260406000206000915090508060000154908060010160009054906101000a900473ffffffffffffffffffffffffffffffffffffffff169080600201805461030a90611959565b80601f016020809104026020016040519081016040528092919081815260200182805461033690611959565b80156103835780601f1061035857610100808354040283529160200191610383565b820191906000526020600020905b81548152906001019060200180831161036657829003601f168201915b5050505050908060030154908060040154908060050154908060060160009054906101000a900460ff16905087565b60045481565b60008060009054906101000a900473ffffffffffffffffffffffffffffffffffffffff1673ffffffffffffffffffffffffffffffffffffffff1663729cad813360008054906101000a900473ffffffffffffffffffffffffffffffffffffffff1673ffffffffffffffffffffffffffffffffffffffff16629f2f3c6040518163ffffffff1660e01b8152600401602060405180830381865afa158015610462573d6000803e3d6000fd5b505050506040513d601f19601f8201168201806040525081019061048691906119c0565b6040518363ffffffff1660e01b81526004016104a39291906119fc565b602060405180830381865afa1580156104c0573d6000803e3d6000fd5b505050506040513d601f19601f820116820180604052508101906104e49190611a3a565b610523576040517f08c379a000000000000000000000000000000000000000000000000000000000815260040161051a90611ab3565b60405180910390fd5b6000825111610567576040517f08c379a000000000000000000000000000000000000000000000000000000000815260040161055e90611b1f565b60405180910390fd5b600060015490506001600081548092919061058190611b6e565b91905055506040518060e001604052808281526020013373ffffffffffffffffffffffffffffffffffffffff1681526020018481526020016000815260200160008152602001600454426105d59190611bb6565b815260200160001515815250600260008381526020019081526020016000206000820151816000015560208201518160010160006101000a81548173ffffffffffffffffffffffffffffffffffffffff021916908373ffffffffffffffffffffffffffffffffffffffff160217905550604082015181600201908161065a9190611d8c565b50606082015181600301556080820151816004015560a0820151816005015560c08201518160060160006101000a81548160ff02191690831515021790555090505080915050919050565b600080821180156106b7575060015482105b6106f6576040517f08c379a00000000000000000000000000000000000000000000000000000000081526004016106ed90611eaa565b60405180910390fd5b6000600260008481526020019081526020016000206040518060e0016040529081600082015481526020016001820160009054906101000a900473ffffffffffffffffffffffffffffffffffffffff1673ffffffffffffffffffffffffffffffffffffffff1673ffffffffffffffffffffffffffffffffffffffff16815260200160028201805461078690611959565b80601f01602080910402602001604051908101604052809291908181526020018280546107b290611959565b80156107ff5780601f106107d4576101008083540402835291602001916107ff565b820191906000526020600020905b8154815290600101906020018083116107e257829003601f168201915b505050505081526020016003820154815260200160048201548152602001600582015481526020016006820160009054906101000a900460ff16151515158152505090508060a0015142101561088a576040517f08c379a000000000000000000000000000000000000000000000000000000000815260040161088190611f16565b60405180910390fd5b8060800151816060015111915050919050565b60036020528160005260406000206020528060005260406000206000915091509054906101000a900460ff1681565b60008060009054906101000a900473ffffffffffffffffffffffffffffffffffffffff1673ffffffffffffffffffffffffffffffffffffffff1663729cad818360008054906101000a900473ffffffffffffffffffffffffffffffffffffffff1673ffffffffffffffffffffffffffffffffffffffff16629f2f3c6040518163ffffffff1660e01b8152600401602060405180830381865afa158015610976573d6000803e3d6000fd5b505050506040513d601f19601f8201168201806040525081019061099a91906119c0565b6040518363ffffffff1660e01b81526004016109b79291906119fc565b602060405180830381865afa1580156109d4573d6000803e3d6000fd5b505050506040513d601f19601f820116820180604052508101906109f89190611a3a565b9050919050565b60008082118015610a11575060015482105b610a50576040517f08c379a0000000000000000000000000000000000000000000000000000000008152600401610a4790611eaa565b60405180910390fd5b600260008381526020019081526020016000206005015442109050919050565b60008060009054906101000a900473ffffffffffffffffffffffffffffffffffffffff1673ffffffffffffffffffffffffffffffffffffffff1663729cad818360008054906101000a900473ffffffffffffffffffffffffffffffffffffffff1673ffffffffffffffffffffffffffffffffffffffff16635ce63e806040518163ffffffff1660e01b8152600401602060405180830381865afa158015610b1b573d6000803e3d6000fd5b505050506040513d601f19601f82011682018060405250810190610b3f91906119c0565b6040518363ffffffff1660e01b8152600401610b5c9291906119fc565b602060405180830381865afa158015610b79573d6000803e3d6000fd5b505050506040513d601f19601f82011682018060405250810190610b9d9190611a3a565b80610ccd575060008054906101000a900473ffffffffffffffffffffffffffffffffffffffff1673ffffffffffffffffffffffffffffffffffffffff1663729cad818360008054906101000a900473ffffffffffffffffffffffffffffffffffffffff1673ffffffffffffffffffffffffffffffffffffffff16629f2f3c6040518163ffffffff1660e01b8152600401602060405180830381865afa158015610c4a573d6000803e3d6000fd5b505050506040513d601f19601f82011682018060405250810190610c6e91906119c0565b6040518363ffffffff1660e01b8152600401610c8b9291906119fc565b602060405180830381865afa158015610ca8573d6000803e3d6000fd5b505050506040513d601f19601f82011682018060405250810190610ccc9190611a3a565b5b9050919050565b600060018054610ce49190611f36565b905090565b6000806060600080600080600088118015610d05575060015488105b610d44576040517f08c379a0000000000000000000000000000000000000000000000000000000008152600401610d3b90611eaa565b60405180910390fd5b6000600260008a81526020019081526020016000206040518060e0016040529081600082015481526020016001820160009054906101000a900473ffffffffffffffffffffffffffffffffffffffff1673ffffffffffffffffffffffffffffffffffffffff1673ffffffffffffffffffffffffffffffffffffffff168152602001600282018054610dd490611959565b80601f0160208091040260200160405190810160405280929190818152602001828054610e0090611959565b8015610e4d5780601f10610e2257610100808354040283529160200191610e4d565b820191906000526020600020905b815481529060010190602001808311610e3057829003601f168201915b505050505081526020016003820154815260200160048201548152602001600582015481526020016006820160009054906101000a900460ff1615151515815250509050806000015181602001518260400151836060015184608001518560a001518660c00151975097509750975097509750975050919395979092949650565b60008054906101000a900473ffffffffffffffffffffffffffffffffffffffff1673ffffffffffffffffffffffffffffffffffffffff1663729cad813360008054906101000a900473ffffffffffffffffffffffffffffffffffffffff1673ffffffffffffffffffffffffffffffffffffffff16635ce63e806040518163ffffffff1660e01b8152600401602060405180830381865afa158015610f76573d6000803e3d6000fd5b505050506040513d601f19601f82011682018060405250810190610f9a91906119c0565b6040518363ffffffff1660e01b8152600401610fb79291906119fc565b602060405180830381865afa158015610fd4573d6000803e3d6000fd5b505050506040513d601f19601f82011682018060405250810190610ff89190611a3a565b80611128575060008054906101000a900473ffffffffffffffffffffffffffffffffffffffff1673ffffffffffffffffffffffffffffffffffffffff1663729cad813360008054906101000a900473ffffffffffffffffffffffffffffffffffffffff1673ffffffffffffffffffffffffffffffffffffffff16629f2f3c6040518163ffffffff1660e01b8152600401602060405180830381865afa1580156110a5573d6000803e3d6000fd5b505050506040513d601f19601f820116820180604052508101906110c991906119c0565b6040518363ffffffff1660e01b81526004016110e69291906119fc565b602060405180830381865afa158015611103573d6000803e3d6000fd5b505050506040513d601f19601f820116820180604052508101906111279190611a3a565b5b611167576040517f08c379a000000000000000000000000000000000000000000000000000000000815260040161115e90611fb6565b60405180910390fd5b600082118015611178575060015482105b6111b7576040517f08c379a00000000000000000000000000000000000000000000000000000000081526004016111ae90611eaa565b60405180910390fd5b600060026000848152602001908152602001600020905080600501544210611214576040517f08c379a000000000000000000000000000000000000000000000000000000000815260040161120b90612022565b60405180910390fd5b60008060009054906101000a900473ffffffffffffffffffffffffffffffffffffffff1673ffffffffffffffffffffffffffffffffffffffff1663fefd4e4f336040518263ffffffff1660e01b81526004016112709190612042565b602060405180830381865afa15801561128d573d6000803e3d6000fd5b505050506040513d601f19601f820116820180604052508101906112b19190612072565b9050600081116112f6576040517f08c379a00000000000000000000000000000000000000000000000000000000081526004016112ed906120eb565b60405180910390fd5b60036000858152602001908152602001600020600082815260200190815260200160002060009054906101000a900460ff1615611368576040517f08c379a000000000000000000000000000000000000000000000000000000000815260040161135f90612157565b60405180910390fd5b600160036000868152602001908152602001600020600083815260200190815260200160002060006101000a81548160ff02191690831515021790555082156113ca578160030160008154809291906113c090611b6e565b91905055506113e5565b8160040160008154809291906113df90611b6e565b91905055505b50505050565b60008054906101000a900473ffffffffffffffffffffffffffffffffffffffff1681565b6000604051905090565b600080fd5b600080fd5b6000819050919050565b61143681611423565b811461144157600080fd5b50565b6000813590506114538161142d565b92915050565b60006020828403121561146f5761146e611419565b5b600061147d84828501611444565b91505092915050565b61148f81611423565b82525050565b600073ffffffffffffffffffffffffffffffffffffffff82169050919050565b60006114c082611495565b9050919050565b6114d0816114b5565b82525050565b600081519050919050565b600082825260208201905092915050565b60005b838110156115105780820151818401526020810190506114f5565b60008484015250505050565b6000601f19601f8301169050919050565b6000611538826114d6565b61154281856114e1565b93506115528185602086016114f2565b61155b8161151c565b840191505092915050565b60008115159050919050565b61157b81611566565b82525050565b600060e082019050611596600083018a611486565b6115a360208301896114c7565b81810360408301526115b5818861152d565b90506115c46060830187611486565b6115d16080830186611486565b6115de60a0830185611486565b6115eb60c0830184611572565b98975050505050505050565b600060208201905061160c6000830184611486565b92915050565b600080fd5b600080fd5b7f4e487b7100000000000000000000000000000000000000000000000000000000600052604160045260246000fd5b6116548261151c565b810181811067ffffffffffffffff821117156116735761167261161c565b5b80604052505050565b600061168661140f565b9050611692828261164b565b919050565b600067ffffffffffffffff8211156116b2576116b161161c565b5b6116bb8261151c565b9050602081019050919050565b82818337600083830152505050565b60006116ea6116e584611697565b61167c565b90508281526020810184848401111561170657611705611617565b5b6117118482856116c8565b509392505050565b600082601f83011261172e5761172d611612565b5b813561173e8482602086016116d7565b91505092915050565b60006020828403121561175d5761175c611419565b5b600082013567ffffffffffffffff81111561177b5761177a61141e565b5b61178784828501611719565b91505092915050565b60006020820190506117a56000830184611572565b92915050565b600080604083850312156117c2576117c1611419565b5b60006117d085828601611444565b92505060206117e185828601611444565b9150509250929050565b6117f4816114b5565b81146117ff57600080fd5b50565b600081359050611811816117eb565b92915050565b60006020828403121561182d5761182c611419565b5b600061183b84828501611802565b91505092915050565b61184d81611566565b811461185857600080fd5b50565b60008135905061186a81611844565b92915050565b6000806040838503121561188757611886611419565b5b600061189585828601611444565b92505060206118a68582860161185b565b9150509250929050565b6000819050919050565b60006118d56118d06118cb84611495565b6118b0565b611495565b9050919050565b60006118e7826118ba565b9050919050565b60006118f9826118dc565b9050919050565b611909816118ee565b82525050565b60006020820190506119246000830184611900565b92915050565b7f4e487b7100000000000000000000000000000000000000000000000000000000600052602260045260246000fd5b6000600282049050600182168061197157607f821691505b6020821081036119845761198361192a565b5b50919050565b6000819050919050565b61199d8161198a565b81146119a857600080fd5b50565b6000815190506119ba81611994565b92915050565b6000602082840312156119d6576119d5611419565b5b60006119e4848285016119ab565b91505092915050565b6119f68161198a565b82525050565b6000604082019050611a1160008301856114c7565b611a1e60208301846119ed565b9392505050565b600081519050611a3481611844565b92915050565b600060208284031215611a5057611a4f611419565b5b6000611a5e84828501611a25565b91505092915050565b7f4d75737420686176652061646d696e20726f6c65000000000000000000000000600082015250565b6000611a9d6014836114e1565b9150611aa882611a67565b602082019050919050565b60006020820190508181036000830152611acc81611a90565b9050919050565b7f4465736372697074696f6e2063616e6e6f7420626520656d7074790000000000600082015250565b6000611b09601b836114e1565b9150611b1482611ad3565b602082019050919050565b60006020820190508181036000830152611b3881611afc565b9050919050565b7f4e487b7100000000000000000000000000000000000000000000000000000000600052601160045260246000fd5b6000611b7982611423565b91507fffffffffffffffffffffffffffffffffffffffffffffffffffffffffffffffff8203611bab57611baa611b3f565b5b600182019050919050565b6000611bc182611423565b9150611bcc83611423565b9250828201905080821115611be457611be3611b3f565b5b92915050565b60008190508160005260206000209050919050565b60006020601f8301049050919050565b600082821b905092915050565b600060088302611c4c7fffffffffffffffffffffffffffffffffffffffffffffffffffffffffffffffff82611c0f565b611c568683611c0f565b95508019841693508086168417925050509392505050565b6000611c89611c84611c7f84611423565b6118b0565b611423565b9050919050565b6000819050919050565b611ca383611c6e565b611cb7611caf82611c90565b848454611c1c565b825550505050565b600090565b611ccc611cbf565b611cd7818484611c9a565b505050565b5b81811015611cfb57611cf0600082611cc4565b600181019050611cdd565b5050565b601f821115611d4057611d1181611bea565b611d1a84611bff565b81016020851015611d29578190505b611d3d611d3585611bff565b830182611cdc565b50505b505050565b600082821c905092915050565b6000611d6360001984600802611d45565b1980831691505092915050565b6000611d7c8383611d52565b9150826002028217905092915050565b611d95826114d6565b67ffffffffffffffff811115611dae57611dad61161c565b5b611db88254611959565b611dc3828285611cff565b600060209050601f831160018114611df65760008415611de4578287015190505b611dee8582611d70565b865550611e56565b601f198416611e0486611bea565b60005b82811015611e2c57848901518255600182019150602085019450602081019050611e07565b86831015611e495784890151611e45601f891682611d52565b8355505b6001600288020188555050505b505050505050565b7f496e76616c69642070726f706f73616c00000000000000000000000000000000600082015250565b6000611e946010836114e1565b9150611e9f82611e5e565b602082019050919050565b60006020820190508181036000830152611ec381611e87565b9050919050565b7f566f74696e67207374696c6c2061637469766500000000000000000000000000600082015250565b6000611f006013836114e1565b9150611f0b82611eca565b602082019050919050565b60006020820190508181036000830152611f2f81611ef3565b9050919050565b6000611f4182611423565b9150611f4c83611423565b9250828203905081811115611f6457611f63611b3f565b5b92915050565b7f4d7573742068617665206d656d626572206f722061646d696e20726f6c650000600082015250565b6000611fa0601e836114e1565b9150611fab82611f6a565b602082019050919050565b60006020820190508181036000830152611fcf81611f93565b9050919050565b7f566f74696e6720706572696f6420656e64656400000000000000000000000000600082015250565b600061200c6013836114e1565b915061201782611fd6565b602082019050919050565b6000602082019050818103600083015261203b81611fff565b9050919050565b600060208201905061205760008301846114c7565b92915050565b60008151905061206c8161142d565b92915050565b60006020828403121561208857612087611419565b5b60006120968482850161205d565b91505092915050565b7f4e6f20746f6b656e20666f756e64000000000000000000000000000000000000600082015250565b60006120d5600e836114e1565b91506120e08261209f565b602082019050919050565b60006020820190508181036000830152612104816120c8565b9050919050565b7f416c726561647920766f74656400000000000000000000000000000000000000600082015250565b6000612141600d836114e1565b915061214c8261210b565b602082019050919050565b6000602082019050818103600083015261217081612134565b905091905056fea26469706673582212209dd16ad2b0a355d0058765c2b3e6ef33b5f0b9e1673585fbd5f0eda73cc2a61764736f6c634300081c0033",
  "linkReferences": {},
  "deployedLinkReferences": {}
}