{
  "_format": "hh-sol-artifact-1",
  "contractName": "MultisigWallet",
  "sourceName": "contracts/MultisigWallet.sol",
  "abi": [
    {
      "inputs": [
        {
          "internalType": "address[]",
          "name": "_owners",
          "type": "address[]"
        },
        {
          "internalType": "uint256",
          "name": "_required",
          "type": "uint256"
        }
      ],
      "stateMutability": "nonpayable",
      "type": "constructor"
    },
    {
      "inputs": [
        {
          "internalType": "uint256",
          "name": "_txId",
          "type": "uint256"
        }
      ],
      "name": "confirmTransaction",
      "outputs": [],
      "stateMutability": "nonpayable",
      "type": "function"
    },
    {
      "inputs": [
        {
          "internalType": "uint256",
          "name": "",
          "type": "uint256"
        },
        {
          "internalType": "address",
          "name": "",
          "type": "address"
        }
      ],
      "name": "confirmations",
      "outputs": [
        {
          "internalType": "bool",
          "name": "",
          "type": "bool"
        }
      ],
      "stateMutability": "view",
      "type": "function"
    },
    {
      "inputs": [
        {
          "internalType": "uint256",
          "name": "_txId",
          "type": "uint256"
        }
      ],
      "name": "executeTransaction",
      "outputs": [],
      "stateMutability": "nonpayable",
      "type": "function"
    },
    {
      "inputs": [],
      "name": "getOwners",
      "outputs": [
        {
          "internalType": "address[]",
          "name": "",
          "type": "address[]"
        }
      ],
      "stateMutability": "view",
      "type": "function"
    },
    {
      "inputs": [
        {
          "internalType": "uint256",
          "name": "_txId",
          "type": "uint256"
        }
      ],
      "name": "getTransaction",
      "outputs": [
        {
          "internalType": "address",
          "name": "to",
          "type": "address"
        },
        {
          "internalType": "uint256",
          "name": "value",
          "type": "uint256"
        },
        {
          "internalType": "bytes",
          "name": "data",
          "type": "bytes"
        },
        {
          "internalType": "bool",
          "name": "executed",
          "type": "bool"
        },
        {
          "internalType": "uint256",
          "name": "numConfirmations",
          "type": "uint256"
        }
      ],
      "stateMutability": "view",
      "type": "function"
    },
    {
      "inputs": [],
      "name": "getTransactionCount",
      "outputs": [
        {
          "internalType": "uint256",
          "name": "",
          "type": "uint256"
        }
      ],
      "stateMutability": "view",
      "type": "function"
    },
    {
      "inputs": [
        {
          "internalType": "address",
          "name": "",
          "type": "address"
        }
      ],
      "name": "isOwner",
      "outputs": [
        {
          "internalType": "bool",
          "name": "",
          "type": "bool"
        }
      ],
      "stateMutability": "view",
      "type": "function"
    },
    {
      "inputs": [
        {
          "internalType": "uint256",
          "name": "",
          "type": "uint256"
        }
      ],
      "name": "owners",
      "outputs": [
        {
          "internalType": "address",
          "name": "",
          "type": "address"
        }
      ],
      "stateMutability": "view",
      "type": "function"
    },
    {
      "inputs": [],
      "name": "required",
      "outputs": [
        {
          "internalType": "uint256",
          "name": "",
          "type": "uint256"
        }
      ],
      "stateMutability": "view",
      "type": "function"
    },
    {
      "inputs": [
        {
          "internalType": "address",
          "name": "_to",
          "type": "address"
        },
        {
          "internalType": "uint256",
          "name": "_value",
          "type": "uint256"
        },
        {
          "internalType": "bytes",
          "name": "_data",
          "type": "bytes"
        }
      ],
      "name": "submitTransaction",
      "outputs": [
        {
          "internalType": "uint256",
          "name": "",
          "type": "uint256"
        }
      ],
      "stateMutability": "nonpayable",
      "type": "function"
    },
    {
      "inputs": [
        {
          "internalType": "uint256",
          "name": "",
          "type": "uint256"
        }
      ],
      "name": "transactions",
      "outputs": [
        {
          "internalType": "address",
          "name": "to",
          "type": "address"
        },
        {
          "internalType": "uint256",
          "name": "value",
          "type": "uint256"
        },
        {
          "internalType": "bytes",
          "name": "data",
          "type": "bytes"
        },
        {
          "internalType": "bool",
          "name": "executed",
          "type": "bool"
        },
        {
          "internalType": "uint256",
          "name": "numConfirmations",
          "type": "uint256"
        }
      ],
      "stateMutability": "view",
      "type": "function"
    },
    {
      "stateMutability": "payable",
      "type": "receive"
    }
  ],
  "bytecode": "0x608060405234801561001057600080fd5b50604051611faa380380611faa833981810160405281019061003291906104c5565b6000825111610076576040517f08c379a000000000000000000000000000000000000000000000000000000000815260040161006d9061057e565b60405180910390fd5b600081118015610087575081518111155b6100c6576040517f08c379a00000000000000000000000000000000000000000000000000000000081526004016100bd90610610565b60405180910390fd5b60005b82518110156102b55760008382815181106100e7576100e6610630565b5b60200260200101519050600073ffffffffffffffffffffffffffffffffffffffff168173ffffffffffffffffffffffffffffffffffffffff1603610160576040517f08c379a0000000000000000000000000000000000000000000000000000000008152600401610157906106ab565b60405180910390fd5b600160008273ffffffffffffffffffffffffffffffffffffffff1673ffffffffffffffffffffffffffffffffffffffff16815260200190815260200160002060009054906101000a900460ff16156101ed576040517f08c379a00000000000000000000000000000000000000000000000000000000081526004016101e490610717565b60405180910390fd5b60018060008373ffffffffffffffffffffffffffffffffffffffff1673ffffffffffffffffffffffffffffffffffffffff16815260200190815260200160002060006101000a81548160ff0219169083151502179055506000819080600181540180825580915050600190039060005260206000200160009091909190916101000a81548173ffffffffffffffffffffffffffffffffffffffff021916908373ffffffffffffffffffffffffffffffffffffffff1602179055505080806001019150506100c9565b50806002819055505050610737565b6000604051905090565b600080fd5b600080fd5b600080fd5b6000601f19601f8301169050919050565b7f4e487b7100000000000000000000000000000000000000000000000000000000600052604160045260246000fd5b610326826102dd565b810181811067ffffffffffffffff82111715610345576103446102ee565b5b80604052505050565b60006103586102c4565b9050610364828261031d565b919050565b600067ffffffffffffffff821115610384576103836102ee565b5b602082029050602081019050919050565b600080fd5b600073ffffffffffffffffffffffffffffffffffffffff82169050919050565b60006103c58261039a565b9050919050565b6103d5816103ba565b81146103e057600080fd5b50565b6000815190506103f2816103cc565b92915050565b600061040b61040684610369565b61034e565b9050808382526020820190506020840283018581111561042e5761042d610395565b5b835b81811015610457578061044388826103e3565b845260208401935050602081019050610430565b5050509392505050565b600082601f830112610476576104756102d8565b5b81516104868482602086016103f8565b91505092915050565b6000819050919050565b6104a28161048f565b81146104ad57600080fd5b50565b6000815190506104bf81610499565b92915050565b600080604083850312156104dc576104db6102ce565b5b600083015167ffffffffffffffff8111156104fa576104f96102d3565b5b61050685828601610461565b9250506020610517858286016104b0565b9150509250929050565b600082825260208201905092915050565b7f4f776e6572732072657175697265640000000000000000000000000000000000600082015250565b6000610568600f83610521565b915061057382610532565b602082019050919050565b600060208201905081810360008301526105978161055b565b9050919050565b7f496e76616c6964207265717569726564206e756d626572206f6620636f6e666960008201527f726d6174696f6e73000000000000000000000000000000000000000000000000602082015250565b60006105fa602883610521565b91506106058261059e565b604082019050919050565b60006020820190508181036000830152610629816105ed565b9050919050565b7f4e487b7100000000000000000000000000000000000000000000000000000000600052603260045260246000fd5b7f496e76616c6964206f776e657200000000000000000000000000000000000000600082015250565b6000610695600d83610521565b91506106a08261065f565b602082019050919050565b600060208201905081810360008301526106c481610688565b9050919050565b7f4f776e6572206e6f7420756e6971756500000000000000000000000000000000600082015250565b6000610701601083610521565b915061070c826106cb565b602082019050919050565b60006020820190508181036000830152610730816106f4565b9050919050565b611864806107466000396000f3fe6080604052600436106100a05760003560e01c80639ace38c2116100645780639ace38c2146101cf578063a0e67e2b14610210578063c01a8c841461023b578063c642747414610264578063dc8452cd146102a1578063ee22610b146102cc576100a7565b8063025e7c27146100ac5780632e7700f0146100e95780632f54bf6e1461011457806333ea3dc8146101515780633411c81c14610192576100a7565b366100a757005b600080fd5b3480156100b857600080fd5b506100d360048036038101906100ce9190610d98565b6102f5565b6040516100e09190610e06565b60405180910390f35b3480156100f557600080fd5b506100fe610334565b60405161010b9190610e30565b60405180910390f35b34801561012057600080fd5b5061013b60048036038101906101369190610e77565b610341565b6040516101489190610ebf565b60405180910390f35b34801561015d57600080fd5b5061017860048036038101906101739190610d98565b610361565b604051610189959493929190610f6a565b60405180910390f35b34801561019e57600080fd5b506101b960048036038101906101b49190610fc4565b610474565b6040516101c69190610ebf565b60405180910390f35b3480156101db57600080fd5b506101f660048036038101906101f19190610d98565b6104a3565b604051610207959493929190610f6a565b60405180910390f35b34801561021c57600080fd5b5061022561059e565b60405161023291906110c2565b60405180910390f35b34801561024757600080fd5b50610262600480360381019061025d9190610d98565b61062c565b005b34801561027057600080fd5b5061028b60048036038101906102869190611149565b610822565b6040516102989190610e30565b60405180910390f35b3480156102ad57600080fd5b506102b6610a12565b6040516102c39190610e30565b60405180910390f35b3480156102d857600080fd5b506102f360048036038101906102ee9190610d98565b610a18565b005b6000818154811061030557600080fd5b906000526020600020016000915054906101000a900473ffffffffffffffffffffffffffffffffffffffff1681565b6000600380549050905090565b60016020528060005260406000206000915054906101000a900460ff1681565b600080606060008060006003878154811061037f5761037e6111bd565b5b906000526020600020906005020190508060000160009054906101000a900473ffffffffffffffffffffffffffffffffffffffff168160010154826002018360030160009054906101000a900460ff1684600401548280546103e09061121b565b80601f016020809104026020016040519081016040528092919081815260200182805461040c9061121b565b80156104595780601f1061042e57610100808354040283529160200191610459565b820191906000526020600020905b81548152906001019060200180831161043c57829003601f168201915b50505050509250955095509550955095505091939590929450565b60046020528160005260406000206020528060005260406000206000915091509054906101000a900460ff1681565b600381815481106104b357600080fd5b90600052602060002090600502016000915090508060000160009054906101000a900473ffffffffffffffffffffffffffffffffffffffff16908060010154908060020180546105029061121b565b80601f016020809104026020016040519081016040528092919081815260200182805461052e9061121b565b801561057b5780601f106105505761010080835404028352916020019161057b565b820191906000526020600020905b81548152906001019060200180831161055e57829003601f168201915b5050505050908060030160009054906101000a900460ff16908060040154905085565b6060600080548060200260200160405190810160405280929190818152602001828054801561062257602002820191906000526020600020905b8160009054906101000a900473ffffffffffffffffffffffffffffffffffffffff1673ffffffffffffffffffffffffffffffffffffffff16815260200190600101908083116105d8575b5050505050905090565b600160003373ffffffffffffffffffffffffffffffffffffffff1673ffffffffffffffffffffffffffffffffffffffff16815260200190815260200160002060009054906101000a900460ff166106b8576040517f08c379a00000000000000000000000000000000000000000000000000000000081526004016106af906112a9565b60405180910390fd5b806003805490508110610700576040517f08c379a00000000000000000000000000000000000000000000000000000000081526004016106f790611315565b60405180910390fd5b8160038181548110610715576107146111bd565b5b906000526020600020906005020160030160009054906101000a900460ff1615610774576040517f08c379a000000000000000000000000000000000000000000000000000000000815260040161076b90611381565b60405180910390fd5b826004600082815260200190815260200160002060003373ffffffffffffffffffffffffffffffffffffffff1673ffffffffffffffffffffffffffffffffffffffff16815260200190815260200160002060009054906101000a900460ff1615610813576040517f08c379a000000000000000000000000000000000000000000000000000000000815260040161080a906113ed565b60405180910390fd5b61081c84610caf565b50505050565b6000600160003373ffffffffffffffffffffffffffffffffffffffff1673ffffffffffffffffffffffffffffffffffffffff16815260200190815260200160002060009054906101000a900460ff166108b0576040517f08c379a00000000000000000000000000000000000000000000000000000000081526004016108a7906112a9565b60405180910390fd5b6000600380549050905060036040518060a001604052808873ffffffffffffffffffffffffffffffffffffffff16815260200187815260200186868080601f016020809104026020016040519081016040528093929190818152602001838380828437600081840152601f19601f8201169050808301925050505050505081526020016000151581526020016000815250908060018154018082558091505060019003906000526020600020906005020160009091909190915060008201518160000160006101000a81548173ffffffffffffffffffffffffffffffffffffffff021916908373ffffffffffffffffffffffffffffffffffffffff1602179055506020820151816001015560408201518160020190816109d091906115e8565b5060608201518160030160006101000a81548160ff021916908315150217905550608082015181600401555050610a0681610caf565b80915050949350505050565b60025481565b600160003373ffffffffffffffffffffffffffffffffffffffff1673ffffffffffffffffffffffffffffffffffffffff16815260200190815260200160002060009054906101000a900460ff16610aa4576040517f08c379a0000000000000000000000000000000000000000000000000000000008152600401610a9b906112a9565b60405180910390fd5b806003805490508110610aec576040517f08c379a0000000000000000000000000000000000000000000000000000000008152600401610ae390611315565b60405180910390fd5b8160038181548110610b0157610b006111bd565b5b906000526020600020906005020160030160009054906101000a900460ff1615610b60576040517f08c379a0000000000000000000000000000000000000000000000000000000008152600401610b5790611381565b60405180910390fd5b600060038481548110610b7657610b756111bd565b5b9060005260206000209060050201905060025481600401541015610bcf576040517f08c379a0000000000000000000000000000000000000000000000000000000008152600401610bc690611706565b60405180910390fd5b60018160030160006101000a81548160ff02191690831515021790555060008160000160009054906101000a900473ffffffffffffffffffffffffffffffffffffffff1673ffffffffffffffffffffffffffffffffffffffff16826001015483600201604051610c3f91906117b4565b60006040518083038185875af1925050503d8060008114610c7c576040519150601f19603f3d011682016040523d82523d6000602084013e610c81565b606091505b5050905080610ca85760008260030160006101000a81548160ff0219169083151502179055505b5050505050565b60016004600083815260200190815260200160002060003373ffffffffffffffffffffffffffffffffffffffff1673ffffffffffffffffffffffffffffffffffffffff16815260200190815260200160002060006101000a81548160ff021916908315150217905550600160038281548110610d2e57610d2d6111bd565b5b90600052602060002090600502016004016000828254610d4e91906117fa565b9250508190555050565b600080fd5b600080fd5b6000819050919050565b610d7581610d62565b8114610d8057600080fd5b50565b600081359050610d9281610d6c565b92915050565b600060208284031215610dae57610dad610d58565b5b6000610dbc84828501610d83565b91505092915050565b600073ffffffffffffffffffffffffffffffffffffffff82169050919050565b6000610df082610dc5565b9050919050565b610e0081610de5565b82525050565b6000602082019050610e1b6000830184610df7565b92915050565b610e2a81610d62565b82525050565b6000602082019050610e456000830184610e21565b92915050565b610e5481610de5565b8114610e5f57600080fd5b50565b600081359050610e7181610e4b565b92915050565b600060208284031215610e8d57610e8c610d58565b5b6000610e9b84828501610e62565b91505092915050565b60008115159050919050565b610eb981610ea4565b82525050565b6000602082019050610ed46000830184610eb0565b92915050565b600081519050919050565b600082825260208201905092915050565b60005b83811015610f14578082015181840152602081019050610ef9565b60008484015250505050565b6000601f19601f8301169050919050565b6000610f3c82610eda565b610f468185610ee5565b9350610f56818560208601610ef6565b610f5f81610f20565b840191505092915050565b600060a082019050610f7f6000830188610df7565b610f8c6020830187610e21565b8181036040830152610f9e8186610f31565b9050610fad6060830185610eb0565b610fba6080830184610e21565b9695505050505050565b60008060408385031215610fdb57610fda610d58565b5b6000610fe985828601610d83565b9250506020610ffa85828601610e62565b9150509250929050565b600081519050919050565b600082825260208201905092915050565b6000819050602082019050919050565b61103981610de5565b82525050565b600061104b8383611030565b60208301905092915050565b6000602082019050919050565b600061106f82611004565b611079818561100f565b935061108483611020565b8060005b838110156110b557815161109c888261103f565b97506110a783611057565b925050600181019050611088565b5085935050505092915050565b600060208201905081810360008301526110dc8184611064565b905092915050565b600080fd5b600080fd5b600080fd5b60008083601f840112611109576111086110e4565b5b8235905067ffffffffffffffff811115611126576111256110e9565b5b602083019150836001820283011115611142576111416110ee565b5b9250929050565b6000806000806060858703121561116357611162610d58565b5b600061117187828801610e62565b945050602061118287828801610d83565b935050604085013567ffffffffffffffff8111156111a3576111a2610d5d565b5b6111af878288016110f3565b925092505092959194509250565b7f4e487b7100000000000000000000000000000000000000000000000000000000600052603260045260246000fd5b7f4e487b7100000000000000000000000000000000000000000000000000000000600052602260045260246000fd5b6000600282049050600182168061123357607f821691505b602082108103611246576112456111ec565b5b50919050565b600082825260208201905092915050565b7f4e6f74206f776e65720000000000000000000000000000000000000000000000600082015250565b600061129360098361124c565b915061129e8261125d565b602082019050919050565b600060208201905081810360008301526112c281611286565b9050919050565b7f547820646f6573206e6f74206578697374000000000000000000000000000000600082015250565b60006112ff60118361124c565b915061130a826112c9565b602082019050919050565b6000602082019050818103600083015261132e816112f2565b9050919050565b7f547820616c726561647920657865637574656400000000000000000000000000600082015250565b600061136b60138361124c565b915061137682611335565b602082019050919050565b6000602082019050818103600083015261139a8161135e565b9050919050565b7f547820616c726561647920636f6e6669726d6564000000000000000000000000600082015250565b60006113d760148361124c565b91506113e2826113a1565b602082019050919050565b60006020820190508181036000830152611406816113ca565b9050919050565b7f4e487b7100000000000000000000000000000000000000000000000000000000600052604160045260246000fd5b60008190508160005260206000209050919050565b60006020601f8301049050919050565b600082821b905092915050565b60006008830261149e7fffffffffffffffffffffffffffffffffffffffffffffffffffffffffffffffff82611461565b6114a88683611461565b95508019841693508086168417925050509392505050565b6000819050919050565b60006114e56114e06114db84610d62565b6114c0565b610d62565b9050919050565b6000819050919050565b6114ff836114ca565b61151361150b826114ec565b84845461146e565b825550505050565b600090565b61152861151b565b6115338184846114f6565b505050565b5b818110156115575761154c600082611520565b600181019050611539565b5050565b601f82111561159c5761156d8161143c565b61157684611451565b81016020851015611585578190505b61159961159185611451565b830182611538565b50505b505050565b600082821c905092915050565b60006115bf600019846008026115a1565b1980831691505092915050565b60006115d883836115ae565b9150826002028217905092915050565b6115f182610eda565b67ffffffffffffffff81111561160a5761160961140d565b5b611614825461121b565b61161f82828561155b565b600060209050601f8311600181146116525760008415611640578287015190505b61164a85826115cc565b8655506116b2565b601f1984166116608661143c565b60005b8281101561168857848901518255600182019150602085019450602081019050611663565b868310156116a557848901516116a1601f8916826115ae565b8355505b6001600288020188555050505b505050505050565b7f4e6f7420656e6f75676820636f6e6669726d6174696f6e730000000000000000600082015250565b60006116f060188361124c565b91506116fb826116ba565b602082019050919050565b6000602082019050818103600083015261171f816116e3565b9050919050565b600081905092915050565b6000815461173e8161121b565b6117488186611726565b945060018216600081146117635760018114611778576117ab565b60ff19831686528115158202860193506117ab565b6117818561143c565b60005b838110156117a357815481890152600182019150602081019050611784565b838801955050505b50505092915050565b60006117c08284611731565b915081905092915050565b7f4e487b7100000000000000000000000000000000000000000000000000000000600052601160045260246000fd5b600061180582610d62565b915061181083610d62565b9250828201905080821115611828576118276117cb565b5b9291505056fea26469706673582212207fe78463272e5f9fbd621d21d38839be555786a7437923ac3db27e7ab15bec4e64736f6c634300081c0033",
  "linkReferences": {},
  "deployedLinkReferences": {}
}